{
  "contractName": "Marketplace",
  "abi": [
    {
      "anonymous": false,
      "inputs": [
        {
          "indexed": false,
          "internalType": "uint256",
          "name": "itemId",
          "type": "uint256"
        },
        {
          "indexed": false,
          "internalType": "address",
          "name": "seller",
          "type": "address"
        },
        {
          "indexed": false,
          "internalType": "uint256",
          "name": "price",
          "type": "uint256"
        }
      ],
      "name": "ItemListed",
      "type": "event"
    },
    {
      "anonymous": false,
      "inputs": [
        {
          "indexed": false,
          "internalType": "uint256",
          "name": "itemId",
          "type": "uint256"
        },
        {
          "indexed": false,
          "internalType": "address",
          "name": "buyer",
          "type": "address"
        }
      ],
      "name": "ItemSold",
      "type": "event"
    },
    {
      "anonymous": false,
      "inputs": [
        {
          "indexed": false,
          "internalType": "uint256",
          "name": "itemId",
          "type": "uint256"
        },
        {
          "indexed": false,
          "internalType": "address",
          "name": "reviewer",
          "type": "address"
        }
      ],
      "name": "ReviewAdded",
      "type": "event"
    },
    {
      "inputs": [],
      "name": "itemCount",
      "outputs": [
        {
          "internalType": "uint256",
          "name": "",
          "type": "uint256"
        }
      ],
      "stateMutability": "view",
      "type": "function"
    },
    {
      "inputs": [
        {
          "internalType": "uint256",
          "name": "",
          "type": "uint256"
        },
        {
          "internalType": "uint256",
          "name": "",
          "type": "uint256"
        }
      ],
      "name": "itemReviews",
      "outputs": [
        {
          "internalType": "address",
          "name": "reviewer",
          "type": "address"
        },
        {
          "internalType": "uint256",
          "name": "rating",
          "type": "uint256"
        },
        {
          "internalType": "string",
          "name": "comment",
          "type": "string"
        }
      ],
      "stateMutability": "view",
      "type": "function"
    },
    {
      "inputs": [
        {
          "internalType": "uint256",
          "name": "",
          "type": "uint256"
        }
      ],
      "name": "items",
      "outputs": [
        {
          "internalType": "uint256",
          "name": "itemId",
          "type": "uint256"
        },
        {
          "internalType": "address payable",
          "name": "seller",
          "type": "address"
        },
        {
          "internalType": "string",
          "name": "name",
          "type": "string"
        },
        {
          "internalType": "string",
          "name": "description",
          "type": "string"
        },
        {
          "internalType": "uint256",
          "name": "price",
          "type": "uint256"
        },
        {
          "internalType": "bool",
          "name": "sold",
          "type": "bool"
        }
      ],
      "stateMutability": "view",
      "type": "function"
    },
    {
      "inputs": [
        {
          "internalType": "string",
          "name": "_name",
          "type": "string"
        },
        {
          "internalType": "string",
          "name": "_description",
          "type": "string"
        },
        {
          "internalType": "uint256",
          "name": "_price",
          "type": "uint256"
        }
      ],
      "name": "listItem",
      "outputs": [],
      "stateMutability": "nonpayable",
      "type": "function"
    },
    {
      "inputs": [
        {
          "internalType": "uint256",
          "name": "_itemId",
          "type": "uint256"
        }
      ],
      "name": "purchaseItem",
      "outputs": [],
      "stateMutability": "payable",
      "type": "function"
    },
    {
      "inputs": [
        {
          "internalType": "uint256",
          "name": "_itemId",
          "type": "uint256"
        },
        {
          "internalType": "uint256",
          "name": "_rating",
          "type": "uint256"
        },
        {
          "internalType": "string",
          "name": "_comment",
          "type": "string"
        }
      ],
      "name": "addReview",
      "outputs": [],
      "stateMutability": "nonpayable",
      "type": "function"
    },
    {
      "inputs": [
        {
          "internalType": "uint256",
          "name": "_itemId",
          "type": "uint256"
        }
      ],
      "name": "getReviews",
      "outputs": [
        {
          "components": [
            {
              "internalType": "address",
              "name": "reviewer",
              "type": "address"
            },
            {
              "internalType": "uint256",
              "name": "rating",
              "type": "uint256"
            },
            {
              "internalType": "string",
              "name": "comment",
              "type": "string"
            }
          ],
          "internalType": "struct Marketplace.Review[]",
          "name": "",
          "type": "tuple[]"
        }
      ],
      "stateMutability": "view",
      "type": "function"
    }
  ],
  "bytecode": "0x608060405234801561000f575f80fd5b506116d58061001d5f395ff3fe60806040526004361061006f575f3560e01c806374ca64fb1161004d57806374ca64fb146100ed5780639d4a22551461012b578063bfb231d214610167578063d38ea5bf146101a85761006f565b80630562021c146100735780633e9e27aa1461009b5780636bfb0d01146100c3575b5f80fd5b34801561007e575f80fd5b5061009960048036038101906100949190610c4f565b6101c4565b005b3480156100a6575f80fd5b506100c160048036038101906100bc9190610cd7565b61035e565b005b3480156100ce575f80fd5b506100d761050d565b6040516100e49190610d52565b60405180910390f35b3480156100f8575f80fd5b50610113600480360381019061010e9190610d6b565b610513565b60405161012293929190610e62565b60405180910390f35b348015610136575f80fd5b50610151600480360381019061014c9190610e9e565b6105f8565b60405161015e9190611037565b60405180910390f35b348015610172575f80fd5b5061018d60048036038101906101889190610e9e565b6107a5565b60405161019f96959493929190611091565b60405180910390f35b6101c260048036038101906101bd9190610e9e565b610913565b005b5f8111610206576040517f08c379a00000000000000000000000000000000000000000000000000000000081526004016101fd90611148565b60405180910390fd5b60025f81548092919061021890611193565b91905055506040518060c0016040528060025481526020013373ffffffffffffffffffffffffffffffffffffffff1681526020018481526020018381526020018281526020015f15158152505f8060025481526020019081526020015f205f820151815f01556020820151816001015f6101000a81548173ffffffffffffffffffffffffffffffffffffffff021916908373ffffffffffffffffffffffffffffffffffffffff16021790555060408201518160020190816102d991906113d4565b5060608201518160030190816102ef91906113d4565b506080820151816004015560a0820151816005015f6101000a81548160ff0219169083151502179055509050507fc93edc6ee14cd6c0c2842099adfa8953b237dbdad304ba28e96dce8a7f2a828c6002543383604051610351939291906114a3565b60405180910390a1505050565b825f8111801561037057506002548111155b6103af576040517f08c379a00000000000000000000000000000000000000000000000000000000081526004016103a690611522565b60405180910390fd5b600183101580156103c1575060058311155b610400576040517f08c379a00000000000000000000000000000000000000000000000000000000081526004016103f79061158a565b60405180910390fd5b60015f8581526020019081526020015f2060405180606001604052803373ffffffffffffffffffffffffffffffffffffffff16815260200185815260200184815250908060018154018082558091505060019003905f5260205f2090600302015f909190919091505f820151815f015f6101000a81548173ffffffffffffffffffffffffffffffffffffffff021916908373ffffffffffffffffffffffffffffffffffffffff1602179055506020820151816001015560408201518160020190816104cb91906113d4565b5050507f147d2c343f054e85e3a52f84240e7454f6361913e64b66f8abc756ffc455683d84336040516104ff9291906115a8565b60405180910390a150505050565b60025481565b6001602052815f5260405f20818154811061052c575f80fd5b905f5260205f2090600302015f9150915050805f015f9054906101000a900473ffffffffffffffffffffffffffffffffffffffff169080600101549080600201805461057790611207565b80601f01602080910402602001604051908101604052809291908181526020018280546105a390611207565b80156105ee5780601f106105c5576101008083540402835291602001916105ee565b820191905f5260205f20905b8154815290600101906020018083116105d157829003601f168201915b5050505050905083565b6060815f8111801561060c57506002548111155b61064b576040517f08c379a000000000000000000000000000000000000000000000000000000000815260040161064290611522565b60405180910390fd5b60015f8481526020019081526020015f20805480602002602001604051908101604052809291908181526020015f905b82821015610799578382905f5260205f2090600302016040518060600160405290815f82015f9054906101000a900473ffffffffffffffffffffffffffffffffffffffff1673ffffffffffffffffffffffffffffffffffffffff1673ffffffffffffffffffffffffffffffffffffffff1681526020016001820154815260200160028201805461070a90611207565b80601f016020809104026020016040519081016040528092919081815260200182805461073690611207565b80156107815780601f1061075857610100808354040283529160200191610781565b820191905f5260205f20905b81548152906001019060200180831161076457829003601f168201915b5050505050815250508152602001906001019061067b565b50505050915050919050565b5f602052805f5260405f205f91509050805f015490806001015f9054906101000a900473ffffffffffffffffffffffffffffffffffffffff16908060020180546107ee90611207565b80601f016020809104026020016040519081016040528092919081815260200182805461081a90611207565b80156108655780601f1061083c57610100808354040283529160200191610865565b820191905f5260205f20905b81548152906001019060200180831161084857829003601f168201915b50505050509080600301805461087a90611207565b80601f01602080910402602001604051908101604052809291908181526020018280546108a690611207565b80156108f15780601f106108c8576101008083540402835291602001916108f1565b820191905f5260205f20905b8154815290600101906020018083116108d457829003601f168201915b505050505090806004015490806005015f9054906101000a900460ff16905086565b805f8111801561092557506002548111155b610964576040517f08c379a000000000000000000000000000000000000000000000000000000000815260040161095b90611522565b60405180910390fd5b5f805f8481526020019081526020015f209050806004015434146109bd576040517f08c379a00000000000000000000000000000000000000000000000000000000081526004016109b490611619565b60405180910390fd5b806005015f9054906101000a900460ff1615610a0e576040517f08c379a0000000000000000000000000000000000000000000000000000000008152600401610a0590611681565b60405180910390fd5b806001015f9054906101000a900473ffffffffffffffffffffffffffffffffffffffff1673ffffffffffffffffffffffffffffffffffffffff166108fc3490811502906040515f60405180830381858888f19350505050158015610a74573d5f803e3d5ffd5b506001816005015f6101000a81548160ff0219169083151502179055507f7de4035ced290be6d7724645d43bad448b5d8cc76743ff4da172c2d8e1caa0f58333604051610ac29291906115a8565b60405180910390a1505050565b5f604051905090565b5f80fd5b5f80fd5b5f80fd5b5f80fd5b5f601f19601f8301169050919050565b7f4e487b71000000000000000000000000000000000000000000000000000000005f52604160045260245ffd5b610b2e82610ae8565b810181811067ffffffffffffffff82111715610b4d57610b4c610af8565b5b80604052505050565b5f610b5f610acf565b9050610b6b8282610b25565b919050565b5f67ffffffffffffffff821115610b8a57610b89610af8565b5b610b9382610ae8565b9050602081019050919050565b828183375f83830152505050565b5f610bc0610bbb84610b70565b610b56565b905082815260208101848484011115610bdc57610bdb610ae4565b5b610be7848285610ba0565b509392505050565b5f82601f830112610c0357610c02610ae0565b5b8135610c13848260208601610bae565b91505092915050565b5f819050919050565b610c2e81610c1c565b8114610c38575f80fd5b50565b5f81359050610c4981610c25565b92915050565b5f805f60608486031215610c6657610c65610ad8565b5b5f84013567ffffffffffffffff811115610c8357610c82610adc565b5b610c8f86828701610bef565b935050602084013567ffffffffffffffff811115610cb057610caf610adc565b5b610cbc86828701610bef565b9250506040610ccd86828701610c3b565b9150509250925092565b5f805f60608486031215610cee57610ced610ad8565b5b5f610cfb86828701610c3b565b9350506020610d0c86828701610c3b565b925050604084013567ffffffffffffffff811115610d2d57610d2c610adc565b5b610d3986828701610bef565b9150509250925092565b610d4c81610c1c565b82525050565b5f602082019050610d655f830184610d43565b92915050565b5f8060408385031215610d8157610d80610ad8565b5b5f610d8e85828601610c3b565b9250506020610d9f85828601610c3b565b9150509250929050565b5f73ffffffffffffffffffffffffffffffffffffffff82169050919050565b5f610dd282610da9565b9050919050565b610de281610dc8565b82525050565b5f81519050919050565b5f82825260208201905092915050565b5f5b83811015610e1f578082015181840152602081019050610e04565b5f8484015250505050565b5f610e3482610de8565b610e3e8185610df2565b9350610e4e818560208601610e02565b610e5781610ae8565b840191505092915050565b5f606082019050610e755f830186610dd9565b610e826020830185610d43565b8181036040830152610e948184610e2a565b9050949350505050565b5f60208284031215610eb357610eb2610ad8565b5b5f610ec084828501610c3b565b91505092915050565b5f81519050919050565b5f82825260208201905092915050565b5f819050602082019050919050565b610efb81610dc8565b82525050565b610f0a81610c1c565b82525050565b5f82825260208201905092915050565b5f610f2a82610de8565b610f348185610f10565b9350610f44818560208601610e02565b610f4d81610ae8565b840191505092915050565b5f606083015f830151610f6d5f860182610ef2565b506020830151610f806020860182610f01565b5060408301518482036040860152610f988282610f20565b9150508091505092915050565b5f610fb08383610f58565b905092915050565b5f602082019050919050565b5f610fce82610ec9565b610fd88185610ed3565b935083602082028501610fea85610ee3565b805f5b8581101561102557848403895281516110068582610fa5565b945061101183610fb8565b925060208a01995050600181019050610fed565b50829750879550505050505092915050565b5f6020820190508181035f83015261104f8184610fc4565b905092915050565b5f61106182610da9565b9050919050565b61107181611057565b82525050565b5f8115159050919050565b61108b81611077565b82525050565b5f60c0820190506110a45f830189610d43565b6110b16020830188611068565b81810360408301526110c38187610e2a565b905081810360608301526110d78186610e2a565b90506110e66080830185610d43565b6110f360a0830184611082565b979650505050505050565b7f5072696365206d7573742062652067726561746572207468616e207a65726f005f82015250565b5f611132601f83610df2565b915061113d826110fe565b602082019050919050565b5f6020820190508181035f83015261115f81611126565b9050919050565b7f4e487b71000000000000000000000000000000000000000000000000000000005f52601160045260245ffd5b5f61119d82610c1c565b91507fffffffffffffffffffffffffffffffffffffffffffffffffffffffffffffffff82036111cf576111ce611166565b5b600182019050919050565b7f4e487b71000000000000000000000000000000000000000000000000000000005f52602260045260245ffd5b5f600282049050600182168061121e57607f821691505b602082108103611231576112306111da565b5b50919050565b5f819050815f5260205f209050919050565b5f6020601f8301049050919050565b5f82821b905092915050565b5f600883026112937fffffffffffffffffffffffffffffffffffffffffffffffffffffffffffffffff82611258565b61129d8683611258565b95508019841693508086168417925050509392505050565b5f819050919050565b5f6112d86112d36112ce84610c1c565b6112b5565b610c1c565b9050919050565b5f819050919050565b6112f1836112be565b6113056112fd826112df565b848454611264565b825550505050565b5f90565b61131961130d565b6113248184846112e8565b505050565b5b818110156113475761133c5f82611311565b60018101905061132a565b5050565b601f82111561138c5761135d81611237565b61136684611249565b81016020851015611375578190505b61138961138185611249565b830182611329565b50505b505050565b5f82821c905092915050565b5f6113ac5f1984600802611391565b1980831691505092915050565b5f6113c4838361139d565b9150826002028217905092915050565b6113dd82610de8565b67ffffffffffffffff8111156113f6576113f5610af8565b5b6114008254611207565b61140b82828561134b565b5f60209050601f83116001811461143c575f841561142a578287015190505b61143485826113b9565b86555061149b565b601f19841661144a86611237565b5f5b828110156114715784890151825560018201915060208501945060208101905061144c565b8683101561148e578489015161148a601f89168261139d565b8355505b6001600288020188555050505b505050505050565b5f6060820190506114b65f830186610d43565b6114c36020830185610dd9565b6114d06040830184610d43565b949350505050565b7f4974656d20646f6573206e6f74206578697374000000000000000000000000005f82015250565b5f61150c601383610df2565b9150611517826114d8565b602082019050919050565b5f6020820190508181035f83015261153981611500565b9050919050565b7f526174696e67206d757374206265206265747765656e203120616e64203500005f82015250565b5f611574601e83610df2565b915061157f82611540565b602082019050919050565b5f6020820190508181035f8301526115a181611568565b9050919050565b5f6040820190506115bb5f830185610d43565b6115c86020830184610dd9565b9392505050565b7f496e636f72726563742076616c75652073656e740000000000000000000000005f82015250565b5f611603601483610df2565b915061160e826115cf565b602082019050919050565b5f6020820190508181035f830152611630816115f7565b9050919050565b7f4974656d20616c726561647920736f6c640000000000000000000000000000005f82015250565b5f61166b601183610df2565b915061167682611637565b602082019050919050565b5f6020820190508181035f8301526116988161165f565b905091905056fea2646970667358221220961ed0a509d8b28f2a98b02ca9ef944540b3d682ceda88bf460b33cde63f6f7064736f6c63430008150033",
  "immutableReferences": {},
  "source": "// contracts/Marketplace.sol\r\n// SPDX-License-Identifier: MIT\r\npragma solidity ^0.8.0;\r\n\r\ncontract Marketplace {\r\n    struct Item {\r\n        uint itemId;\r\n        address payable seller;\r\n        string name;\r\n        string description;\r\n        uint price;\r\n        bool sold;\r\n    }\r\n\r\n    struct Review {\r\n        address reviewer;\r\n        uint rating;\r\n        string comment;\r\n    }\r\n\r\n    mapping(uint => Item) public items;\r\n    mapping(uint => Review[]) public itemReviews;\r\n    uint public itemCount;\r\n\r\n    event ItemListed(uint itemId, address seller, uint price);\r\n    event ItemSold(uint itemId, address buyer);\r\n    event ReviewAdded(uint itemId, address reviewer);\r\n\r\n    modifier onlySeller(uint _itemId) {\r\n        require(items[_itemId].seller == msg.sender, \"Not the seller\");\r\n        _;\r\n    }\r\n\r\n    modifier itemExists(uint _itemId) {\r\n        require(_itemId > 0 && _itemId <= itemCount, \"Item does not exist\");\r\n        _;\r\n    }\r\n\r\n    function listItem(string memory _name, string memory _description, uint _price) public {\r\n        require(_price > 0, \"Price must be greater than zero\");\r\n        itemCount++;\r\n        items[itemCount] = Item(itemCount, payable(msg.sender), _name, _description, _price, false);\r\n        emit ItemListed(itemCount, msg.sender, _price);\r\n    }\r\n\r\n    function purchaseItem(uint _itemId) public payable itemExists(_itemId) {\r\n        Item storage item = items[_itemId];\r\n        require(msg.value == item.price, \"Incorrect value sent\");\r\n        require(!item.sold, \"Item already sold\");\r\n        item.seller.transfer(msg.value);\r\n        item.sold = true;\r\n        emit ItemSold(_itemId, msg.sender);\r\n    }\r\n\r\n    function addReview(uint _itemId, uint _rating, string memory _comment) public itemExists(_itemId) {\r\n        require(_rating >= 1 && _rating <= 5, \"Rating must be between 1 and 5\");\r\n        itemReviews[_itemId].push(Review(msg.sender, _rating, _comment));\r\n        emit ReviewAdded(_itemId, msg.sender);\r\n    }\r\n\r\n    function getReviews(uint _itemId) public view itemExists(_itemId) returns (Review[] memory) {\r\n        return itemReviews[_itemId];\r\n    }\r\n}",
  "sourcePath": "C:\\Projects\\SE-242M-Theory-and-Technology-of-Blockchain\\blockchain-app\\contracts\\Marketplace.sol",
  "compiler": {
    "name": "solc",
    "version": "0.8.21+commit.d9974bed.Emscripten.clang"
  },
  "schemaVersion": "3.4.16",
  "updatedAt": "2024-10-23T11:15:18.521Z",
  "devdoc": {
    "kind": "dev",
    "methods": {},
    "version": 1
  },
  "userdoc": {
    "kind": "user",
    "methods": {},
    "version": 1
  }
}