{
	"contracts/HelloWorld.sol": {
		"HelloWorld": {
			"abi": [
				{
					"inputs": [],
					"stateMutability": "nonpayable",
					"type": "constructor"
				},
				{
					"inputs": [],
					"name": "getMessage",
					"outputs": [
						{
							"internalType": "string",
							"name": "",
							"type": "string"
						}
					],
					"stateMutability": "view",
					"type": "function"
				},
				{
					"inputs": [],
					"name": "getMessageHistory",
					"outputs": [
						{
							"internalType": "string[]",
							"name": "",
							"type": "string[]"
						}
					],
					"stateMutability": "view",
					"type": "function"
				},
				{
					"inputs": [],
					"name": "message",
					"outputs": [
						{
							"internalType": "string",
							"name": "",
							"type": "string"
						}
					],
					"stateMutability": "view",
					"type": "function"
				},
				{
					"inputs": [],
					"name": "messageChangeCount",
					"outputs": [
						{
							"internalType": "uint256",
							"name": "",
							"type": "uint256"
						}
					],
					"stateMutability": "view",
					"type": "function"
				},
				{
					"inputs": [
						{
							"internalType": "uint256",
							"name": "",
							"type": "uint256"
						}
					],
					"name": "messageHistory",
					"outputs": [
						{
							"internalType": "string",
							"name": "",
							"type": "string"
						}
					],
					"stateMutability": "view",
					"type": "function"
				},
				{
					"inputs": [
						{
							"internalType": "string",
							"name": "_message",
							"type": "string"
						}
					],
					"name": "setMessage",
					"outputs": [],
					"stateMutability": "nonpayable",
					"type": "function"
				}
			],
			"devdoc": {
				"kind": "dev",
				"methods": {},
				"version": 1
			},
			"evm": {
				"assembly": "    /* \"contracts/HelloWorld.sol\":60:705  contract HelloWorld {... */\n  mstore(0x40, 0x80)\n    /* \"contracts/HelloWorld.sol\":191:321  constructor() {... */\n  callvalue\n  dup1\n  iszero\n  tag_1\n  jumpi\n  0x00\n  dup1\n  revert\ntag_1:\n  pop\n    /* \"contracts/HelloWorld.sol\":216:241  message = \"Hello, World!\" */\n  mload(0x40)\n  dup1\n  0x40\n  add\n  0x40\n  mstore\n  dup1\n  0x0d\n  dup2\n  mstore\n  0x20\n  add\n  0x48656c6c6f2c20576f726c642100000000000000000000000000000000000000\n  dup2\n  mstore\n  pop\n    /* \"contracts/HelloWorld.sol\":216:223  message */\n  0x00\n    /* \"contracts/HelloWorld.sol\":216:241  message = \"Hello, World!\" */\n  swap1\n  dup2\n  tag_4\n  swap2\n  swap1\n  tag_5\n  jump\t// in\ntag_4:\n  pop\n    /* \"contracts/HelloWorld.sol\":252:266  messageHistory */\n  0x01\n    /* \"contracts/HelloWorld.sol\":272:279  message */\n  0x00\n    /* \"contracts/HelloWorld.sol\":252:280  messageHistory.push(message) */\n  swap1\n  dup1\n  0x01\n  dup2\n  sload\n  add\n  dup1\n  dup3\n  sstore\n  dup1\n  swap2\n  pop\n  pop\n  0x01\n  swap1\n  sub\n  swap1\n  0x00\n  mstore\n  keccak256(0x00, 0x20)\n  add\n  0x00\n  swap1\n  swap2\n  swap1\n  swap2\n  swap1\n  swap2\n  pop\n  swap1\n  dup2\n  tag_7\n  swap2\n  swap1\n  tag_8\n  jump\t// in\ntag_7:\n  pop\n    /* \"contracts/HelloWorld.sol\":312:313  0 */\n  0x00\n    /* \"contracts/HelloWorld.sol\":291:309  messageChangeCount */\n  0x02\n    /* \"contracts/HelloWorld.sol\":291:313  messageChangeCount = 0 */\n  dup2\n  swap1\n  sstore\n  pop\n    /* \"contracts/HelloWorld.sol\":60:705  contract HelloWorld {... */\n  jump(tag_9)\n    /* \"#utility.yul\":7:106   */\ntag_10:\n    /* \"#utility.yul\":59:65   */\n  0x00\n    /* \"#utility.yul\":93:98   */\n  dup2\n    /* \"#utility.yul\":87:99   */\n  mload\n    /* \"#utility.yul\":77:99   */\n  swap1\n  pop\n    /* \"#utility.yul\":7:106   */\n  swap2\n  swap1\n  pop\n  jump\t// out\n    /* \"#utility.yul\":112:292   */\ntag_11:\n    /* \"#utility.yul\":160:237   */\n  0x4e487b7100000000000000000000000000000000000000000000000000000000\n    /* \"#utility.yul\":157:158   */\n  0x00\n    /* \"#utility.yul\":150:238   */\n  mstore\n    /* \"#utility.yul\":257:261   */\n  0x41\n    /* \"#utility.yul\":254:255   */\n  0x04\n    /* \"#utility.yul\":247:262   */\n  mstore\n    /* \"#utility.yul\":281:285   */\n  0x24\n    /* \"#utility.yul\":278:279   */\n  0x00\n    /* \"#utility.yul\":271:286   */\n  revert\n    /* \"#utility.yul\":298:478   */\ntag_12:\n    /* \"#utility.yul\":346:423   */\n  0x4e487b7100000000000000000000000000000000000000000000000000000000\n    /* \"#utility.yul\":343:344   */\n  0x00\n    /* \"#utility.yul\":336:424   */\n  mstore\n    /* \"#utility.yul\":443:447   */\n  0x22\n    /* \"#utility.yul\":440:441   */\n  0x04\n    /* \"#utility.yul\":433:448   */\n  mstore\n    /* \"#utility.yul\":467:471   */\n  0x24\n    /* \"#utility.yul\":464:465   */\n  0x00\n    /* \"#utility.yul\":457:472   */\n  revert\n    /* \"#utility.yul\":484:804   */\ntag_13:\n    /* \"#utility.yul\":528:534   */\n  0x00\n    /* \"#utility.yul\":565:566   */\n  0x02\n    /* \"#utility.yul\":559:563   */\n  dup3\n    /* \"#utility.yul\":555:567   */\n  div\n    /* \"#utility.yul\":545:567   */\n  swap1\n  pop\n    /* \"#utility.yul\":612:613   */\n  0x01\n    /* \"#utility.yul\":606:610   */\n  dup3\n    /* \"#utility.yul\":602:614   */\n  and\n    /* \"#utility.yul\":633:651   */\n  dup1\n    /* \"#utility.yul\":623:704   */\n  tag_37\n  jumpi\n    /* \"#utility.yul\":689:693   */\n  0x7f\n    /* \"#utility.yul\":681:687   */\n  dup3\n    /* \"#utility.yul\":677:694   */\n  and\n    /* \"#utility.yul\":667:694   */\n  swap2\n  pop\n    /* \"#utility.yul\":623:704   */\ntag_37:\n    /* \"#utility.yul\":751:753   */\n  0x20\n    /* \"#utility.yul\":743:749   */\n  dup3\n    /* \"#utility.yul\":740:754   */\n  lt\n    /* \"#utility.yul\":720:738   */\n  dup2\n    /* \"#utility.yul\":717:755   */\n  sub\n    /* \"#utility.yul\":714:798   */\n  tag_38\n  jumpi\n    /* \"#utility.yul\":770:788   */\n  tag_39\n  tag_12\n  jump\t// in\ntag_39:\n    /* \"#utility.yul\":714:798   */\ntag_38:\n    /* \"#utility.yul\":535:804   */\n  pop\n    /* \"#utility.yul\":484:804   */\n  swap2\n  swap1\n  pop\n  jump\t// out\n    /* \"#utility.yul\":810:951   */\ntag_14:\n    /* \"#utility.yul\":859:863   */\n  0x00\n    /* \"#utility.yul\":882:885   */\n  dup2\n    /* \"#utility.yul\":874:885   */\n  swap1\n  pop\n    /* \"#utility.yul\":905:908   */\n  dup2\n    /* \"#utility.yul\":902:903   */\n  0x00\n    /* \"#utility.yul\":895:909   */\n  mstore\n    /* \"#utility.yul\":939:943   */\n  0x20\n    /* \"#utility.yul\":936:937   */\n  0x00\n    /* \"#utility.yul\":926:944   */\n  keccak256\n    /* \"#utility.yul\":918:944   */\n  swap1\n  pop\n    /* \"#utility.yul\":810:951   */\n  swap2\n  swap1\n  pop\n  jump\t// out\n    /* \"#utility.yul\":957:1050   */\ntag_15:\n    /* \"#utility.yul\":994:1000   */\n  0x00\n    /* \"#utility.yul\":1041:1043   */\n  0x20\n    /* \"#utility.yul\":1036:1038   */\n  0x1f\n    /* \"#utility.yul\":1029:1034   */\n  dup4\n    /* \"#utility.yul\":1025:1039   */\n  add\n    /* \"#utility.yul\":1021:1044   */\n  div\n    /* \"#utility.yul\":1011:1044   */\n  swap1\n  pop\n    /* \"#utility.yul\":957:1050   */\n  swap2\n  swap1\n  pop\n  jump\t// out\n    /* \"#utility.yul\":1056:1163   */\ntag_16:\n    /* \"#utility.yul\":1100:1108   */\n  0x00\n    /* \"#utility.yul\":1150:1155   */\n  dup3\n    /* \"#utility.yul\":1144:1148   */\n  dup3\n    /* \"#utility.yul\":1140:1156   */\n  shl\n    /* \"#utility.yul\":1119:1156   */\n  swap1\n  pop\n    /* \"#utility.yul\":1056:1163   */\n  swap3\n  swap2\n  pop\n  pop\n  jump\t// out\n    /* \"#utility.yul\":1169:1562   */\ntag_17:\n    /* \"#utility.yul\":1238:1244   */\n  0x00\n    /* \"#utility.yul\":1288:1289   */\n  0x08\n    /* \"#utility.yul\":1276:1286   */\n  dup4\n    /* \"#utility.yul\":1272:1290   */\n  mul\n    /* \"#utility.yul\":1311:1408   */\n  tag_44\n    /* \"#utility.yul\":1341:1407   */\n  0xffffffffffffffffffffffffffffffffffffffffffffffffffffffffffffffff\n    /* \"#utility.yul\":1330:1339   */\n  dup3\n    /* \"#utility.yul\":1311:1408   */\n  tag_16\n  jump\t// in\ntag_44:\n    /* \"#utility.yul\":1429:1468   */\n  tag_45\n    /* \"#utility.yul\":1459:1467   */\n  dup7\n    /* \"#utility.yul\":1448:1457   */\n  dup4\n    /* \"#utility.yul\":1429:1468   */\n  tag_16\n  jump\t// in\ntag_45:\n    /* \"#utility.yul\":1417:1468   */\n  swap6\n  pop\n    /* \"#utility.yul\":1501:1505   */\n  dup1\n    /* \"#utility.yul\":1497:1506   */\n  not\n    /* \"#utility.yul\":1490:1495   */\n  dup5\n    /* \"#utility.yul\":1486:1507   */\n  and\n    /* \"#utility.yul\":1477:1507   */\n  swap4\n  pop\n    /* \"#utility.yul\":1550:1554   */\n  dup1\n    /* \"#utility.yul\":1540:1548   */\n  dup7\n    /* \"#utility.yul\":1536:1555   */\n  and\n    /* \"#utility.yul\":1529:1534   */\n  dup5\n    /* \"#utility.yul\":1526:1556   */\n  or\n    /* \"#utility.yul\":1516:1556   */\n  swap3\n  pop\n    /* \"#utility.yul\":1245:1562   */\n  pop\n  pop\n    /* \"#utility.yul\":1169:1562   */\n  swap4\n  swap3\n  pop\n  pop\n  pop\n  jump\t// out\n    /* \"#utility.yul\":1568:1645   */\ntag_18:\n    /* \"#utility.yul\":1605:1612   */\n  0x00\n    /* \"#utility.yul\":1634:1639   */\n  dup2\n    /* \"#utility.yul\":1623:1639   */\n  swap1\n  pop\n    /* \"#utility.yul\":1568:1645   */\n  swap2\n  swap1\n  pop\n  jump\t// out\n    /* \"#utility.yul\":1651:1711   */\ntag_19:\n    /* \"#utility.yul\":1679:1682   */\n  0x00\n    /* \"#utility.yul\":1700:1705   */\n  dup2\n    /* \"#utility.yul\":1693:1705   */\n  swap1\n  pop\n    /* \"#utility.yul\":1651:1711   */\n  swap2\n  swap1\n  pop\n  jump\t// out\n    /* \"#utility.yul\":1717:1859   */\ntag_20:\n    /* \"#utility.yul\":1767:1776   */\n  0x00\n    /* \"#utility.yul\":1800:1853   */\n  tag_49\n    /* \"#utility.yul\":1818:1852   */\n  tag_50\n    /* \"#utility.yul\":1827:1851   */\n  tag_51\n    /* \"#utility.yul\":1845:1850   */\n  dup5\n    /* \"#utility.yul\":1827:1851   */\n  tag_18\n  jump\t// in\ntag_51:\n    /* \"#utility.yul\":1818:1852   */\n  tag_19\n  jump\t// in\ntag_50:\n    /* \"#utility.yul\":1800:1853   */\n  tag_18\n  jump\t// in\ntag_49:\n    /* \"#utility.yul\":1787:1853   */\n  swap1\n  pop\n    /* \"#utility.yul\":1717:1859   */\n  swap2\n  swap1\n  pop\n  jump\t// out\n    /* \"#utility.yul\":1865:1940   */\ntag_21:\n    /* \"#utility.yul\":1908:1911   */\n  0x00\n    /* \"#utility.yul\":1929:1934   */\n  dup2\n    /* \"#utility.yul\":1922:1934   */\n  swap1\n  pop\n    /* \"#utility.yul\":1865:1940   */\n  swap2\n  swap1\n  pop\n  jump\t// out\n    /* \"#utility.yul\":1946:2215   */\ntag_22:\n    /* \"#utility.yul\":2056:2095   */\n  tag_54\n    /* \"#utility.yul\":2087:2094   */\n  dup4\n    /* \"#utility.yul\":2056:2095   */\n  tag_20\n  jump\t// in\ntag_54:\n    /* \"#utility.yul\":2117:2208   */\n  tag_55\n    /* \"#utility.yul\":2166:2207   */\n  tag_56\n    /* \"#utility.yul\":2190:2206   */\n  dup3\n    /* \"#utility.yul\":2166:2207   */\n  tag_21\n  jump\t// in\ntag_56:\n    /* \"#utility.yul\":2158:2164   */\n  dup5\n    /* \"#utility.yul\":2151:2155   */\n  dup5\n    /* \"#utility.yul\":2145:2156   */\n  sload\n    /* \"#utility.yul\":2117:2208   */\n  tag_17\n  jump\t// in\ntag_55:\n    /* \"#utility.yul\":2111:2115   */\n  dup3\n    /* \"#utility.yul\":2104:2209   */\n  sstore\n    /* \"#utility.yul\":2022:2215   */\n  pop\n    /* \"#utility.yul\":1946:2215   */\n  pop\n  pop\n  pop\n  jump\t// out\n    /* \"#utility.yul\":2221:2294   */\ntag_23:\n    /* \"#utility.yul\":2266:2269   */\n  0x00\n    /* \"#utility.yul\":2221:2294   */\n  swap1\n  jump\t// out\n    /* \"#utility.yul\":2300:2489   */\ntag_24:\n    /* \"#utility.yul\":2377:2409   */\n  tag_59\n  tag_23\n  jump\t// in\ntag_59:\n    /* \"#utility.yul\":2418:2483   */\n  tag_60\n    /* \"#utility.yul\":2476:2482   */\n  dup2\n    /* \"#utility.yul\":2468:2474   */\n  dup5\n    /* \"#utility.yul\":2462:2466   */\n  dup5\n    /* \"#utility.yul\":2418:2483   */\n  tag_22\n  jump\t// in\ntag_60:\n    /* \"#utility.yul\":2353:2489   */\n  pop\n    /* \"#utility.yul\":2300:2489   */\n  pop\n  pop\n  jump\t// out\n    /* \"#utility.yul\":2495:2681   */\ntag_25:\n    /* \"#utility.yul\":2555:2675   */\ntag_62:\n    /* \"#utility.yul\":2572:2575   */\n  dup2\n    /* \"#utility.yul\":2565:2570   */\n  dup2\n    /* \"#utility.yul\":2562:2576   */\n  lt\n    /* \"#utility.yul\":2555:2675   */\n  iszero\n  tag_64\n  jumpi\n    /* \"#utility.yul\":2626:2665   */\n  tag_65\n    /* \"#utility.yul\":2663:2664   */\n  0x00\n    /* \"#utility.yul\":2656:2661   */\n  dup3\n    /* \"#utility.yul\":2626:2665   */\n  tag_24\n  jump\t// in\ntag_65:\n    /* \"#utility.yul\":2599:2600   */\n  0x01\n    /* \"#utility.yul\":2592:2597   */\n  dup2\n    /* \"#utility.yul\":2588:2601   */\n  add\n    /* \"#utility.yul\":2579:2601   */\n  swap1\n  pop\n    /* \"#utility.yul\":2555:2675   */\n  jump(tag_62)\ntag_64:\n    /* \"#utility.yul\":2495:2681   */\n  pop\n  pop\n  jump\t// out\n    /* \"#utility.yul\":2687:3230   */\ntag_26:\n    /* \"#utility.yul\":2788:2790   */\n  0x1f\n    /* \"#utility.yul\":2783:2786   */\n  dup3\n    /* \"#utility.yul\":2780:2791   */\n  gt\n    /* \"#utility.yul\":2777:3223   */\n  iszero\n  tag_67\n  jumpi\n    /* \"#utility.yul\":2822:2860   */\n  tag_68\n    /* \"#utility.yul\":2854:2859   */\n  dup2\n    /* \"#utility.yul\":2822:2860   */\n  tag_14\n  jump\t// in\ntag_68:\n    /* \"#utility.yul\":2906:2935   */\n  tag_69\n    /* \"#utility.yul\":2924:2934   */\n  dup5\n    /* \"#utility.yul\":2906:2935   */\n  tag_15\n  jump\t// in\ntag_69:\n    /* \"#utility.yul\":2896:2904   */\n  dup2\n    /* \"#utility.yul\":2892:2936   */\n  add\n    /* \"#utility.yul\":3089:3091   */\n  0x20\n    /* \"#utility.yul\":3077:3087   */\n  dup6\n    /* \"#utility.yul\":3074:3092   */\n  lt\n    /* \"#utility.yul\":3071:3120   */\n  iszero\n  tag_70\n  jumpi\n    /* \"#utility.yul\":3110:3118   */\n  dup2\n    /* \"#utility.yul\":3095:3118   */\n  swap1\n  pop\n    /* \"#utility.yul\":3071:3120   */\ntag_70:\n    /* \"#utility.yul\":3133:3213   */\n  tag_71\n    /* \"#utility.yul\":3189:3211   */\n  tag_72\n    /* \"#utility.yul\":3207:3210   */\n  dup6\n    /* \"#utility.yul\":3189:3211   */\n  tag_15\n  jump\t// in\ntag_72:\n    /* \"#utility.yul\":3179:3187   */\n  dup4\n    /* \"#utility.yul\":3175:3212   */\n  add\n    /* \"#utility.yul\":3162:3173   */\n  dup3\n    /* \"#utility.yul\":3133:3213   */\n  tag_25\n  jump\t// in\ntag_71:\n    /* \"#utility.yul\":2792:3223   */\n  pop\n  pop\n    /* \"#utility.yul\":2777:3223   */\ntag_67:\n    /* \"#utility.yul\":2687:3230   */\n  pop\n  pop\n  pop\n  jump\t// out\n    /* \"#utility.yul\":3236:3353   */\ntag_27:\n    /* \"#utility.yul\":3290:3298   */\n  0x00\n    /* \"#utility.yul\":3340:3345   */\n  dup3\n    /* \"#utility.yul\":3334:3338   */\n  dup3\n    /* \"#utility.yul\":3330:3346   */\n  shr\n    /* \"#utility.yul\":3309:3346   */\n  swap1\n  pop\n    /* \"#utility.yul\":3236:3353   */\n  swap3\n  swap2\n  pop\n  pop\n  jump\t// out\n    /* \"#utility.yul\":3359:3528   */\ntag_28:\n    /* \"#utility.yul\":3403:3409   */\n  0x00\n    /* \"#utility.yul\":3436:3487   */\n  tag_75\n    /* \"#utility.yul\":3484:3485   */\n  0x00\n    /* \"#utility.yul\":3480:3486   */\n  not\n    /* \"#utility.yul\":3472:3477   */\n  dup5\n    /* \"#utility.yul\":3469:3470   */\n  0x08\n    /* \"#utility.yul\":3465:3478   */\n  mul\n    /* \"#utility.yul\":3436:3487   */\n  tag_27\n  jump\t// in\ntag_75:\n    /* \"#utility.yul\":3432:3488   */\n  not\n    /* \"#utility.yul\":3517:3521   */\n  dup1\n    /* \"#utility.yul\":3511:3515   */\n  dup4\n    /* \"#utility.yul\":3507:3522   */\n  and\n    /* \"#utility.yul\":3497:3522   */\n  swap2\n  pop\n    /* \"#utility.yul\":3410:3528   */\n  pop\n    /* \"#utility.yul\":3359:3528   */\n  swap3\n  swap2\n  pop\n  pop\n  jump\t// out\n    /* \"#utility.yul\":3533:3828   */\ntag_29:\n    /* \"#utility.yul\":3609:3613   */\n  0x00\n    /* \"#utility.yul\":3755:3784   */\n  tag_77\n    /* \"#utility.yul\":3780:3783   */\n  dup4\n    /* \"#utility.yul\":3774:3778   */\n  dup4\n    /* \"#utility.yul\":3755:3784   */\n  tag_28\n  jump\t// in\ntag_77:\n    /* \"#utility.yul\":3747:3784   */\n  swap2\n  pop\n    /* \"#utility.yul\":3817:3820   */\n  dup3\n    /* \"#utility.yul\":3814:3815   */\n  0x02\n    /* \"#utility.yul\":3810:3821   */\n  mul\n    /* \"#utility.yul\":3804:3808   */\n  dup3\n    /* \"#utility.yul\":3801:3822   */\n  or\n    /* \"#utility.yul\":3793:3822   */\n  swap1\n  pop\n    /* \"#utility.yul\":3533:3828   */\n  swap3\n  swap2\n  pop\n  pop\n  jump\t// out\n    /* \"#utility.yul\":3833:5228   */\ntag_5:\n    /* \"#utility.yul\":3950:3987   */\n  tag_79\n    /* \"#utility.yul\":3983:3986   */\n  dup3\n    /* \"#utility.yul\":3950:3987   */\n  tag_10\n  jump\t// in\ntag_79:\n    /* \"#utility.yul\":4052:4070   */\n  0xffffffffffffffff\n    /* \"#utility.yul\":4044:4050   */\n  dup2\n    /* \"#utility.yul\":4041:4071   */\n  gt\n    /* \"#utility.yul\":4038:4094   */\n  iszero\n  tag_80\n  jumpi\n    /* \"#utility.yul\":4074:4092   */\n  tag_81\n  tag_11\n  jump\t// in\ntag_81:\n    /* \"#utility.yul\":4038:4094   */\ntag_80:\n    /* \"#utility.yul\":4118:4156   */\n  tag_82\n    /* \"#utility.yul\":4150:4154   */\n  dup3\n    /* \"#utility.yul\":4144:4155   */\n  sload\n    /* \"#utility.yul\":4118:4156   */\n  tag_13\n  jump\t// in\ntag_82:\n    /* \"#utility.yul\":4203:4270   */\n  tag_83\n    /* \"#utility.yul\":4263:4269   */\n  dup3\n    /* \"#utility.yul\":4255:4261   */\n  dup3\n    /* \"#utility.yul\":4249:4253   */\n  dup6\n    /* \"#utility.yul\":4203:4270   */\n  tag_26\n  jump\t// in\ntag_83:\n    /* \"#utility.yul\":4297:4298   */\n  0x00\n    /* \"#utility.yul\":4321:4325   */\n  0x20\n    /* \"#utility.yul\":4308:4325   */\n  swap1\n  pop\n    /* \"#utility.yul\":4353:4355   */\n  0x1f\n    /* \"#utility.yul\":4345:4351   */\n  dup4\n    /* \"#utility.yul\":4342:4356   */\n  gt\n    /* \"#utility.yul\":4370:4371   */\n  0x01\n    /* \"#utility.yul\":4365:4983   */\n  dup2\n  eq\n  tag_85\n  jumpi\n    /* \"#utility.yul\":5027:5028   */\n  0x00\n    /* \"#utility.yul\":5044:5050   */\n  dup5\n    /* \"#utility.yul\":5041:5118   */\n  iszero\n  tag_86\n  jumpi\n    /* \"#utility.yul\":5093:5102   */\n  dup3\n    /* \"#utility.yul\":5088:5091   */\n  dup8\n    /* \"#utility.yul\":5084:5103   */\n  add\n    /* \"#utility.yul\":5078:5104   */\n  mload\n    /* \"#utility.yul\":5069:5104   */\n  swap1\n  pop\n    /* \"#utility.yul\":5041:5118   */\ntag_86:\n    /* \"#utility.yul\":5144:5211   */\n  tag_87\n    /* \"#utility.yul\":5204:5210   */\n  dup6\n    /* \"#utility.yul\":5197:5202   */\n  dup3\n    /* \"#utility.yul\":5144:5211   */\n  tag_29\n  jump\t// in\ntag_87:\n    /* \"#utility.yul\":5138:5142   */\n  dup7\n    /* \"#utility.yul\":5131:5212   */\n  sstore\n    /* \"#utility.yul\":5000:5222   */\n  pop\n    /* \"#utility.yul\":4335:5222   */\n  jump(tag_84)\n    /* \"#utility.yul\":4365:4983   */\ntag_85:\n    /* \"#utility.yul\":4417:4421   */\n  0x1f\n    /* \"#utility.yul\":4413:4422   */\n  not\n    /* \"#utility.yul\":4405:4411   */\n  dup5\n    /* \"#utility.yul\":4401:4423   */\n  and\n    /* \"#utility.yul\":4451:4488   */\n  tag_88\n    /* \"#utility.yul\":4483:4487   */\n  dup7\n    /* \"#utility.yul\":4451:4488   */\n  tag_14\n  jump\t// in\ntag_88:\n    /* \"#utility.yul\":4510:4511   */\n  0x00\n    /* \"#utility.yul\":4524:4732   */\ntag_89:\n    /* \"#utility.yul\":4538:4545   */\n  dup3\n    /* \"#utility.yul\":4535:4536   */\n  dup2\n    /* \"#utility.yul\":4532:4546   */\n  lt\n    /* \"#utility.yul\":4524:4732   */\n  iszero\n  tag_91\n  jumpi\n    /* \"#utility.yul\":4617:4626   */\n  dup5\n    /* \"#utility.yul\":4612:4615   */\n  dup10\n    /* \"#utility.yul\":4608:4627   */\n  add\n    /* \"#utility.yul\":4602:4628   */\n  mload\n    /* \"#utility.yul\":4594:4600   */\n  dup3\n    /* \"#utility.yul\":4587:4629   */\n  sstore\n    /* \"#utility.yul\":4668:4669   */\n  0x01\n    /* \"#utility.yul\":4660:4666   */\n  dup3\n    /* \"#utility.yul\":4656:4670   */\n  add\n    /* \"#utility.yul\":4646:4670   */\n  swap2\n  pop\n    /* \"#utility.yul\":4715:4717   */\n  0x20\n    /* \"#utility.yul\":4704:4713   */\n  dup6\n    /* \"#utility.yul\":4700:4718   */\n  add\n    /* \"#utility.yul\":4687:4718   */\n  swap5\n  pop\n    /* \"#utility.yul\":4561:4565   */\n  0x20\n    /* \"#utility.yul\":4558:4559   */\n  dup2\n    /* \"#utility.yul\":4554:4566   */\n  add\n    /* \"#utility.yul\":4549:4566   */\n  swap1\n  pop\n    /* \"#utility.yul\":4524:4732   */\n  jump(tag_89)\ntag_91:\n    /* \"#utility.yul\":4760:4766   */\n  dup7\n    /* \"#utility.yul\":4751:4758   */\n  dup4\n    /* \"#utility.yul\":4748:4767   */\n  lt\n    /* \"#utility.yul\":4745:4924   */\n  iszero\n  tag_92\n  jumpi\n    /* \"#utility.yul\":4818:4827   */\n  dup5\n    /* \"#utility.yul\":4813:4816   */\n  dup10\n    /* \"#utility.yul\":4809:4828   */\n  add\n    /* \"#utility.yul\":4803:4829   */\n  mload\n    /* \"#utility.yul\":4861:4909   */\n  tag_93\n    /* \"#utility.yul\":4903:4907   */\n  0x1f\n    /* \"#utility.yul\":4895:4901   */\n  dup10\n    /* \"#utility.yul\":4891:4908   */\n  and\n    /* \"#utility.yul\":4880:4889   */\n  dup3\n    /* \"#utility.yul\":4861:4909   */\n  tag_28\n  jump\t// in\ntag_93:\n    /* \"#utility.yul\":4853:4859   */\n  dup4\n    /* \"#utility.yul\":4846:4910   */\n  sstore\n    /* \"#utility.yul\":4768:4924   */\n  pop\n    /* \"#utility.yul\":4745:4924   */\ntag_92:\n    /* \"#utility.yul\":4970:4971   */\n  0x01\n    /* \"#utility.yul\":4966:4967   */\n  0x02\n    /* \"#utility.yul\":4958:4964   */\n  dup9\n    /* \"#utility.yul\":4954:4968   */\n  mul\n    /* \"#utility.yul\":4950:4972   */\n  add\n    /* \"#utility.yul\":4944:4948   */\n  dup9\n    /* \"#utility.yul\":4937:4973   */\n  sstore\n    /* \"#utility.yul\":4372:4983   */\n  pop\n  pop\n  pop\n    /* \"#utility.yul\":4335:5222   */\ntag_84:\n  pop\n    /* \"#utility.yul\":3925:5228   */\n  pop\n  pop\n  pop\n    /* \"#utility.yul\":3833:5228   */\n  pop\n  pop\n  jump\t// out\n    /* \"#utility.yul\":5234:5387   */\ntag_30:\n    /* \"#utility.yul\":5287:5293   */\n  0x00\n    /* \"#utility.yul\":5321:5326   */\n  dup2\n    /* \"#utility.yul\":5315:5327   */\n  sload\n    /* \"#utility.yul\":5305:5327   */\n  swap1\n  pop\n    /* \"#utility.yul\":5347:5380   */\n  tag_95\n    /* \"#utility.yul\":5373:5379   */\n  dup2\n    /* \"#utility.yul\":5347:5380   */\n  tag_13\n  jump\t// in\ntag_95:\n    /* \"#utility.yul\":5337:5380   */\n  swap1\n  pop\n    /* \"#utility.yul\":5234:5387   */\n  swap2\n  swap1\n  pop\n  jump\t// out\n    /* \"#utility.yul\":5393:5538   */\ntag_31:\n    /* \"#utility.yul\":5446:5450   */\n  0x00\n    /* \"#utility.yul\":5469:5472   */\n  dup2\n    /* \"#utility.yul\":5461:5472   */\n  swap1\n  pop\n    /* \"#utility.yul\":5492:5495   */\n  dup2\n    /* \"#utility.yul\":5489:5490   */\n  0x00\n    /* \"#utility.yul\":5482:5496   */\n  mstore\n    /* \"#utility.yul\":5526:5530   */\n  0x20\n    /* \"#utility.yul\":5523:5524   */\n  0x00\n    /* \"#utility.yul\":5513:5531   */\n  keccak256\n    /* \"#utility.yul\":5505:5531   */\n  swap1\n  pop\n    /* \"#utility.yul\":5393:5538   */\n  swap2\n  swap1\n  pop\n  jump\t// out\n    /* \"#utility.yul\":5544:7007   */\ntag_8:\n    /* \"#utility.yul\":5659:5662   */\n  dup2\n    /* \"#utility.yul\":5653:5657   */\n  dup2\n    /* \"#utility.yul\":5650:5663   */\n  sub\n    /* \"#utility.yul\":5647:5673   */\n  tag_98\n  jumpi\n    /* \"#utility.yul\":5666:5671   */\n  pop\n  pop\n  jump(tag_97)\n    /* \"#utility.yul\":5647:5673   */\ntag_98:\n    /* \"#utility.yul\":5697:5735   */\n  tag_99\n    /* \"#utility.yul\":5731:5734   */\n  dup3\n    /* \"#utility.yul\":5697:5735   */\n  tag_30\n  jump\t// in\ntag_99:\n    /* \"#utility.yul\":5800:5818   */\n  0xffffffffffffffff\n    /* \"#utility.yul\":5792:5798   */\n  dup2\n    /* \"#utility.yul\":5789:5819   */\n  gt\n    /* \"#utility.yul\":5786:5842   */\n  iszero\n  tag_100\n  jumpi\n    /* \"#utility.yul\":5822:5840   */\n  tag_101\n  tag_11\n  jump\t// in\ntag_101:\n    /* \"#utility.yul\":5786:5842   */\ntag_100:\n    /* \"#utility.yul\":5866:5904   */\n  tag_102\n    /* \"#utility.yul\":5898:5902   */\n  dup3\n    /* \"#utility.yul\":5892:5903   */\n  sload\n    /* \"#utility.yul\":5866:5904   */\n  tag_13\n  jump\t// in\ntag_102:\n    /* \"#utility.yul\":5951:6018   */\n  tag_103\n    /* \"#utility.yul\":6011:6017   */\n  dup3\n    /* \"#utility.yul\":6003:6009   */\n  dup3\n    /* \"#utility.yul\":5997:6001   */\n  dup6\n    /* \"#utility.yul\":5951:6018   */\n  tag_26\n  jump\t// in\ntag_103:\n    /* \"#utility.yul\":6045:6046   */\n  0x00\n    /* \"#utility.yul\":6074:6076   */\n  0x1f\n    /* \"#utility.yul\":6066:6072   */\n  dup4\n    /* \"#utility.yul\":6063:6077   */\n  gt\n    /* \"#utility.yul\":6091:6092   */\n  0x01\n    /* \"#utility.yul\":6086:6762   */\n  dup2\n  eq\n  tag_105\n  jumpi\n    /* \"#utility.yul\":6806:6807   */\n  0x00\n    /* \"#utility.yul\":6823:6829   */\n  dup5\n    /* \"#utility.yul\":6820:6897   */\n  iszero\n  tag_106\n  jumpi\n    /* \"#utility.yul\":6872:6881   */\n  dup3\n    /* \"#utility.yul\":6867:6870   */\n  dup8\n    /* \"#utility.yul\":6863:6882   */\n  add\n    /* \"#utility.yul\":6857:6883   */\n  sload\n    /* \"#utility.yul\":6848:6883   */\n  swap1\n  pop\n    /* \"#utility.yul\":6820:6897   */\ntag_106:\n    /* \"#utility.yul\":6923:6990   */\n  tag_107\n    /* \"#utility.yul\":6983:6989   */\n  dup6\n    /* \"#utility.yul\":6976:6981   */\n  dup3\n    /* \"#utility.yul\":6923:6990   */\n  tag_29\n  jump\t// in\ntag_107:\n    /* \"#utility.yul\":6917:6921   */\n  dup7\n    /* \"#utility.yul\":6910:6991   */\n  sstore\n    /* \"#utility.yul\":6779:7001   */\n  pop\n    /* \"#utility.yul\":6056:7001   */\n  jump(tag_104)\n    /* \"#utility.yul\":6086:6762   */\ntag_105:\n    /* \"#utility.yul\":6138:6142   */\n  0x1f\n    /* \"#utility.yul\":6134:6143   */\n  not\n    /* \"#utility.yul\":6126:6132   */\n  dup5\n    /* \"#utility.yul\":6122:6144   */\n  and\n    /* \"#utility.yul\":6164:6204   */\n  tag_108\n    /* \"#utility.yul\":6200:6203   */\n  dup8\n    /* \"#utility.yul\":6164:6204   */\n  tag_31\n  jump\t// in\ntag_108:\n    /* \"#utility.yul\":6157:6204   */\n  swap7\n  pop\n    /* \"#utility.yul\":6231:6268   */\n  tag_109\n    /* \"#utility.yul\":6263:6267   */\n  dup7\n    /* \"#utility.yul\":6231:6268   */\n  tag_14\n  jump\t// in\ntag_109:\n    /* \"#utility.yul\":6290:6291   */\n  0x00\n    /* \"#utility.yul\":6304:6511   */\ntag_110:\n    /* \"#utility.yul\":6318:6325   */\n  dup3\n    /* \"#utility.yul\":6315:6316   */\n  dup2\n    /* \"#utility.yul\":6312:6326   */\n  lt\n    /* \"#utility.yul\":6304:6511   */\n  iszero\n  tag_112\n  jumpi\n    /* \"#utility.yul\":6397:6406   */\n  dup5\n    /* \"#utility.yul\":6392:6395   */\n  dup10\n    /* \"#utility.yul\":6388:6407   */\n  add\n    /* \"#utility.yul\":6382:6408   */\n  sload\n    /* \"#utility.yul\":6374:6380   */\n  dup3\n    /* \"#utility.yul\":6367:6409   */\n  sstore\n    /* \"#utility.yul\":6448:6449   */\n  0x01\n    /* \"#utility.yul\":6440:6446   */\n  dup3\n    /* \"#utility.yul\":6436:6450   */\n  add\n    /* \"#utility.yul\":6426:6450   */\n  swap2\n  pop\n    /* \"#utility.yul\":6495:6496   */\n  0x01\n    /* \"#utility.yul\":6484:6493   */\n  dup6\n    /* \"#utility.yul\":6480:6497   */\n  add\n    /* \"#utility.yul\":6467:6497   */\n  swap5\n  pop\n    /* \"#utility.yul\":6341:6345   */\n  0x20\n    /* \"#utility.yul\":6338:6339   */\n  dup2\n    /* \"#utility.yul\":6334:6346   */\n  add\n    /* \"#utility.yul\":6329:6346   */\n  swap1\n  pop\n    /* \"#utility.yul\":6304:6511   */\n  jump(tag_110)\ntag_112:\n    /* \"#utility.yul\":6539:6545   */\n  dup7\n    /* \"#utility.yul\":6530:6537   */\n  dup4\n    /* \"#utility.yul\":6527:6546   */\n  lt\n    /* \"#utility.yul\":6524:6703   */\n  iszero\n  tag_113\n  jumpi\n    /* \"#utility.yul\":6597:6606   */\n  dup5\n    /* \"#utility.yul\":6592:6595   */\n  dup10\n    /* \"#utility.yul\":6588:6607   */\n  add\n    /* \"#utility.yul\":6582:6608   */\n  sload\n    /* \"#utility.yul\":6640:6688   */\n  tag_114\n    /* \"#utility.yul\":6682:6686   */\n  0x1f\n    /* \"#utility.yul\":6674:6680   */\n  dup10\n    /* \"#utility.yul\":6670:6687   */\n  and\n    /* \"#utility.yul\":6659:6668   */\n  dup3\n    /* \"#utility.yul\":6640:6688   */\n  tag_28\n  jump\t// in\ntag_114:\n    /* \"#utility.yul\":6632:6638   */\n  dup4\n    /* \"#utility.yul\":6625:6689   */\n  sstore\n    /* \"#utility.yul\":6547:6703   */\n  pop\n    /* \"#utility.yul\":6524:6703   */\ntag_113:\n    /* \"#utility.yul\":6749:6750   */\n  0x01\n    /* \"#utility.yul\":6745:6746   */\n  0x02\n    /* \"#utility.yul\":6737:6743   */\n  dup9\n    /* \"#utility.yul\":6733:6747   */\n  mul\n    /* \"#utility.yul\":6729:6751   */\n  add\n    /* \"#utility.yul\":6723:6727   */\n  dup9\n    /* \"#utility.yul\":6716:6752   */\n  sstore\n    /* \"#utility.yul\":6093:6762   */\n  pop\n  pop\n  pop\n    /* \"#utility.yul\":6056:7001   */\ntag_104:\n  pop\n    /* \"#utility.yul\":5637:7007   */\n  pop\n  pop\n  pop\n    /* \"#utility.yul\":5544:7007   */\n  pop\n  pop\ntag_97:\n  jump\t// out\n    /* \"contracts/HelloWorld.sol\":60:705  contract HelloWorld {... */\ntag_9:\n  dataSize(sub_0)\n  dup1\n  dataOffset(sub_0)\n  0x00\n  codecopy\n  0x00\n  return\nstop\n\nsub_0: assembly {\n        /* \"contracts/HelloWorld.sol\":60:705  contract HelloWorld {... */\n      mstore(0x40, 0x80)\n      callvalue\n      dup1\n      iszero\n      tag_1\n      jumpi\n      0x00\n      dup1\n      revert\n    tag_1:\n      pop\n      jumpi(tag_2, lt(calldatasize, 0x04))\n      shr(0xe0, calldataload(0x00))\n      dup1\n      0x368b8772\n      eq\n      tag_3\n      jumpi\n      dup1\n      0x75abf685\n      eq\n      tag_4\n      jumpi\n      dup1\n      0xb1020df9\n      eq\n      tag_5\n      jumpi\n      dup1\n      0xce6d41de\n      eq\n      tag_6\n      jumpi\n      dup1\n      0xd49e68b2\n      eq\n      tag_7\n      jumpi\n      dup1\n      0xe21f37ce\n      eq\n      tag_8\n      jumpi\n    tag_2:\n      0x00\n      dup1\n      revert\n        /* \"contracts/HelloWorld.sol\":329:488  function setMessage(string memory _message) public {... */\n    tag_3:\n      tag_9\n      0x04\n      dup1\n      calldatasize\n      sub\n      dup2\n      add\n      swap1\n      tag_10\n      swap2\n      swap1\n      tag_11\n      jump\t// in\n    tag_10:\n      tag_12\n      jump\t// in\n    tag_9:\n      stop\n        /* \"contracts/HelloWorld.sol\":595:702  function getMessageHistory() public view returns (string[] memory) {... */\n    tag_4:\n      tag_13\n      tag_14\n      jump\t// in\n    tag_13:\n      mload(0x40)\n      tag_15\n      swap2\n      swap1\n      tag_16\n      jump\t// in\n    tag_15:\n      mload(0x40)\n      dup1\n      swap2\n      sub\n      swap1\n      return\n        /* \"contracts/HelloWorld.sol\":115:145  string[] public messageHistory */\n    tag_5:\n      tag_17\n      0x04\n      dup1\n      calldatasize\n      sub\n      dup2\n      add\n      swap1\n      tag_18\n      swap2\n      swap1\n      tag_19\n      jump\t// in\n    tag_18:\n      tag_20\n      jump\t// in\n    tag_17:\n      mload(0x40)\n      tag_21\n      swap2\n      swap1\n      tag_22\n      jump\t// in\n    tag_21:\n      mload(0x40)\n      dup1\n      swap2\n      sub\n      swap1\n      return\n        /* \"contracts/HelloWorld.sol\":496:587  function getMessage() public view returns (string memory) {... */\n    tag_6:\n      tag_23\n      tag_24\n      jump\t// in\n    tag_23:\n      mload(0x40)\n      tag_25\n      swap2\n      swap1\n      tag_22\n      jump\t// in\n    tag_25:\n      mload(0x40)\n      dup1\n      swap2\n      sub\n      swap1\n      return\n        /* \"contracts/HelloWorld.sol\":152:182  uint public messageChangeCount */\n    tag_7:\n      tag_26\n      tag_27\n      jump\t// in\n    tag_26:\n      mload(0x40)\n      tag_28\n      swap2\n      swap1\n      tag_29\n      jump\t// in\n    tag_28:\n      mload(0x40)\n      dup1\n      swap2\n      sub\n      swap1\n      return\n        /* \"contracts/HelloWorld.sol\":87:108  string public message */\n    tag_8:\n      tag_30\n      tag_31\n      jump\t// in\n    tag_30:\n      mload(0x40)\n      tag_32\n      swap2\n      swap1\n      tag_22\n      jump\t// in\n    tag_32:\n      mload(0x40)\n      dup1\n      swap2\n      sub\n      swap1\n      return\n        /* \"contracts/HelloWorld.sol\":329:488  function setMessage(string memory _message) public {... */\n    tag_12:\n        /* \"contracts/HelloWorld.sol\":401:409  _message */\n      dup1\n        /* \"contracts/HelloWorld.sol\":391:398  message */\n      0x00\n        /* \"contracts/HelloWorld.sol\":391:409  message = _message */\n      swap1\n      dup2\n      tag_34\n      swap2\n      swap1\n      tag_35\n      jump\t// in\n    tag_34:\n      pop\n        /* \"contracts/HelloWorld.sol\":420:434  messageHistory */\n      0x01\n        /* \"contracts/HelloWorld.sol\":440:448  _message */\n      dup2\n        /* \"contracts/HelloWorld.sol\":420:449  messageHistory.push(_message) */\n      swap1\n      dup1\n      0x01\n      dup2\n      sload\n      add\n      dup1\n      dup3\n      sstore\n      dup1\n      swap2\n      pop\n      pop\n      0x01\n      swap1\n      sub\n      swap1\n      0x00\n      mstore\n      keccak256(0x00, 0x20)\n      add\n      0x00\n      swap1\n      swap2\n      swap1\n      swap2\n      swap1\n      swap2\n      pop\n      swap1\n      dup2\n      tag_37\n      swap2\n      swap1\n      tag_35\n      jump\t// in\n    tag_37:\n      pop\n        /* \"contracts/HelloWorld.sol\":460:478  messageChangeCount */\n      0x02\n      0x00\n        /* \"contracts/HelloWorld.sol\":460:480  messageChangeCount++ */\n      dup2\n      sload\n      dup1\n      swap3\n      swap2\n      swap1\n      tag_38\n      swap1\n      tag_39\n      jump\t// in\n    tag_38:\n      swap2\n      swap1\n      pop\n      sstore\n      pop\n        /* \"contracts/HelloWorld.sol\":329:488  function setMessage(string memory _message) public {... */\n      pop\n      jump\t// out\n        /* \"contracts/HelloWorld.sol\":595:702  function getMessageHistory() public view returns (string[] memory) {... */\n    tag_14:\n        /* \"contracts/HelloWorld.sol\":645:660  string[] memory */\n      0x60\n        /* \"contracts/HelloWorld.sol\":680:694  messageHistory */\n      0x01\n        /* \"contracts/HelloWorld.sol\":673:694  return messageHistory */\n      dup1\n      sload\n      dup1\n      0x20\n      mul\n      0x20\n      add\n      mload(0x40)\n      swap1\n      dup2\n      add\n      0x40\n      mstore\n      dup1\n      swap3\n      swap2\n      swap1\n      dup2\n      dup2\n      mstore\n      0x20\n      add\n      0x00\n      swap1\n    tag_41:\n      dup3\n      dup3\n      lt\n      iszero\n      tag_42\n      jumpi\n      dup4\n      dup3\n      swap1\n      0x00\n      mstore\n      keccak256(0x00, 0x20)\n      add\n      dup1\n      sload\n      tag_44\n      swap1\n      tag_45\n      jump\t// in\n    tag_44:\n      dup1\n      0x1f\n      add\n      0x20\n      dup1\n      swap2\n      div\n      mul\n      0x20\n      add\n      mload(0x40)\n      swap1\n      dup2\n      add\n      0x40\n      mstore\n      dup1\n      swap3\n      swap2\n      swap1\n      dup2\n      dup2\n      mstore\n      0x20\n      add\n      dup3\n      dup1\n      sload\n      tag_46\n      swap1\n      tag_45\n      jump\t// in\n    tag_46:\n      dup1\n      iszero\n      tag_47\n      jumpi\n      dup1\n      0x1f\n      lt\n      tag_48\n      jumpi\n      0x0100\n      dup1\n      dup4\n      sload\n      div\n      mul\n      dup4\n      mstore\n      swap2\n      0x20\n      add\n      swap2\n      jump(tag_47)\n    tag_48:\n      dup3\n      add\n      swap2\n      swap1\n      0x00\n      mstore\n      keccak256(0x00, 0x20)\n      swap1\n    tag_49:\n      dup2\n      sload\n      dup2\n      mstore\n      swap1\n      0x01\n      add\n      swap1\n      0x20\n      add\n      dup1\n      dup4\n      gt\n      tag_49\n      jumpi\n      dup3\n      swap1\n      sub\n      0x1f\n      and\n      dup3\n      add\n      swap2\n    tag_47:\n      pop\n      pop\n      pop\n      pop\n      pop\n      dup2\n      mstore\n      0x20\n      add\n      swap1\n      0x01\n      add\n      swap1\n      jump(tag_41)\n    tag_42:\n      pop\n      pop\n      pop\n      pop\n      swap1\n      pop\n        /* \"contracts/HelloWorld.sol\":595:702  function getMessageHistory() public view returns (string[] memory) {... */\n      swap1\n      jump\t// out\n        /* \"contracts/HelloWorld.sol\":115:145  string[] public messageHistory */\n    tag_20:\n      0x01\n      dup2\n      dup2\n      sload\n      dup2\n      lt\n      tag_50\n      jumpi\n      0x00\n      dup1\n      revert\n    tag_50:\n      swap1\n      0x00\n      mstore\n      keccak256(0x00, 0x20)\n      add\n      0x00\n      swap2\n      pop\n      swap1\n      pop\n      dup1\n      sload\n      tag_52\n      swap1\n      tag_45\n      jump\t// in\n    tag_52:\n      dup1\n      0x1f\n      add\n      0x20\n      dup1\n      swap2\n      div\n      mul\n      0x20\n      add\n      mload(0x40)\n      swap1\n      dup2\n      add\n      0x40\n      mstore\n      dup1\n      swap3\n      swap2\n      swap1\n      dup2\n      dup2\n      mstore\n      0x20\n      add\n      dup3\n      dup1\n      sload\n      tag_53\n      swap1\n      tag_45\n      jump\t// in\n    tag_53:\n      dup1\n      iszero\n      tag_54\n      jumpi\n      dup1\n      0x1f\n      lt\n      tag_55\n      jumpi\n      0x0100\n      dup1\n      dup4\n      sload\n      div\n      mul\n      dup4\n      mstore\n      swap2\n      0x20\n      add\n      swap2\n      jump(tag_54)\n    tag_55:\n      dup3\n      add\n      swap2\n      swap1\n      0x00\n      mstore\n      keccak256(0x00, 0x20)\n      swap1\n    tag_56:\n      dup2\n      sload\n      dup2\n      mstore\n      swap1\n      0x01\n      add\n      swap1\n      0x20\n      add\n      dup1\n      dup4\n      gt\n      tag_56\n      jumpi\n      dup3\n      swap1\n      sub\n      0x1f\n      and\n      dup3\n      add\n      swap2\n    tag_54:\n      pop\n      pop\n      pop\n      pop\n      pop\n      dup2\n      jump\t// out\n        /* \"contracts/HelloWorld.sol\":496:587  function getMessage() public view returns (string memory) {... */\n    tag_24:\n        /* \"contracts/HelloWorld.sol\":539:552  string memory */\n      0x60\n        /* \"contracts/HelloWorld.sol\":572:579  message */\n      0x00\n        /* \"contracts/HelloWorld.sol\":565:579  return message */\n      dup1\n      sload\n      tag_58\n      swap1\n      tag_45\n      jump\t// in\n    tag_58:\n      dup1\n      0x1f\n      add\n      0x20\n      dup1\n      swap2\n      div\n      mul\n      0x20\n      add\n      mload(0x40)\n      swap1\n      dup2\n      add\n      0x40\n      mstore\n      dup1\n      swap3\n      swap2\n      swap1\n      dup2\n      dup2\n      mstore\n      0x20\n      add\n      dup3\n      dup1\n      sload\n      tag_59\n      swap1\n      tag_45\n      jump\t// in\n    tag_59:\n      dup1\n      iszero\n      tag_60\n      jumpi\n      dup1\n      0x1f\n      lt\n      tag_61\n      jumpi\n      0x0100\n      dup1\n      dup4\n      sload\n      div\n      mul\n      dup4\n      mstore\n      swap2\n      0x20\n      add\n      swap2\n      jump(tag_60)\n    tag_61:\n      dup3\n      add\n      swap2\n      swap1\n      0x00\n      mstore\n      keccak256(0x00, 0x20)\n      swap1\n    tag_62:\n      dup2\n      sload\n      dup2\n      mstore\n      swap1\n      0x01\n      add\n      swap1\n      0x20\n      add\n      dup1\n      dup4\n      gt\n      tag_62\n      jumpi\n      dup3\n      swap1\n      sub\n      0x1f\n      and\n      dup3\n      add\n      swap2\n    tag_60:\n      pop\n      pop\n      pop\n      pop\n      pop\n      swap1\n      pop\n        /* \"contracts/HelloWorld.sol\":496:587  function getMessage() public view returns (string memory) {... */\n      swap1\n      jump\t// out\n        /* \"contracts/HelloWorld.sol\":152:182  uint public messageChangeCount */\n    tag_27:\n      sload(0x02)\n      dup2\n      jump\t// out\n        /* \"contracts/HelloWorld.sol\":87:108  string public message */\n    tag_31:\n      0x00\n      dup1\n      sload\n      tag_63\n      swap1\n      tag_45\n      jump\t// in\n    tag_63:\n      dup1\n      0x1f\n      add\n      0x20\n      dup1\n      swap2\n      div\n      mul\n      0x20\n      add\n      mload(0x40)\n      swap1\n      dup2\n      add\n      0x40\n      mstore\n      dup1\n      swap3\n      swap2\n      swap1\n      dup2\n      dup2\n      mstore\n      0x20\n      add\n      dup3\n      dup1\n      sload\n      tag_64\n      swap1\n      tag_45\n      jump\t// in\n    tag_64:\n      dup1\n      iszero\n      tag_65\n      jumpi\n      dup1\n      0x1f\n      lt\n      tag_66\n      jumpi\n      0x0100\n      dup1\n      dup4\n      sload\n      div\n      mul\n      dup4\n      mstore\n      swap2\n      0x20\n      add\n      swap2\n      jump(tag_65)\n    tag_66:\n      dup3\n      add\n      swap2\n      swap1\n      0x00\n      mstore\n      keccak256(0x00, 0x20)\n      swap1\n    tag_67:\n      dup2\n      sload\n      dup2\n      mstore\n      swap1\n      0x01\n      add\n      swap1\n      0x20\n      add\n      dup1\n      dup4\n      gt\n      tag_67\n      jumpi\n      dup3\n      swap1\n      sub\n      0x1f\n      and\n      dup3\n      add\n      swap2\n    tag_65:\n      pop\n      pop\n      pop\n      pop\n      pop\n      dup2\n      jump\t// out\n        /* \"#utility.yul\":7:82   */\n    tag_68:\n        /* \"#utility.yul\":40:46   */\n      0x00\n        /* \"#utility.yul\":73:75   */\n      0x40\n        /* \"#utility.yul\":67:76   */\n      mload\n        /* \"#utility.yul\":57:76   */\n      swap1\n      pop\n        /* \"#utility.yul\":7:82   */\n      swap1\n      jump\t// out\n        /* \"#utility.yul\":88:205   */\n    tag_69:\n        /* \"#utility.yul\":197:198   */\n      0x00\n        /* \"#utility.yul\":194:195   */\n      dup1\n        /* \"#utility.yul\":187:199   */\n      revert\n        /* \"#utility.yul\":211:328   */\n    tag_70:\n        /* \"#utility.yul\":320:321   */\n      0x00\n        /* \"#utility.yul\":317:318   */\n      dup1\n        /* \"#utility.yul\":310:322   */\n      revert\n        /* \"#utility.yul\":334:451   */\n    tag_71:\n        /* \"#utility.yul\":443:444   */\n      0x00\n        /* \"#utility.yul\":440:441   */\n      dup1\n        /* \"#utility.yul\":433:445   */\n      revert\n        /* \"#utility.yul\":457:574   */\n    tag_72:\n        /* \"#utility.yul\":566:567   */\n      0x00\n        /* \"#utility.yul\":563:564   */\n      dup1\n        /* \"#utility.yul\":556:568   */\n      revert\n        /* \"#utility.yul\":580:682   */\n    tag_73:\n        /* \"#utility.yul\":621:627   */\n      0x00\n        /* \"#utility.yul\":672:674   */\n      0x1f\n        /* \"#utility.yul\":668:675   */\n      not\n        /* \"#utility.yul\":663:665   */\n      0x1f\n        /* \"#utility.yul\":656:661   */\n      dup4\n        /* \"#utility.yul\":652:666   */\n      add\n        /* \"#utility.yul\":648:676   */\n      and\n        /* \"#utility.yul\":638:676   */\n      swap1\n      pop\n        /* \"#utility.yul\":580:682   */\n      swap2\n      swap1\n      pop\n      jump\t// out\n        /* \"#utility.yul\":688:868   */\n    tag_74:\n        /* \"#utility.yul\":736:813   */\n      0x4e487b7100000000000000000000000000000000000000000000000000000000\n        /* \"#utility.yul\":733:734   */\n      0x00\n        /* \"#utility.yul\":726:814   */\n      mstore\n        /* \"#utility.yul\":833:837   */\n      0x41\n        /* \"#utility.yul\":830:831   */\n      0x04\n        /* \"#utility.yul\":823:838   */\n      mstore\n        /* \"#utility.yul\":857:861   */\n      0x24\n        /* \"#utility.yul\":854:855   */\n      0x00\n        /* \"#utility.yul\":847:862   */\n      revert\n        /* \"#utility.yul\":874:1155   */\n    tag_75:\n        /* \"#utility.yul\":957:984   */\n      tag_123\n        /* \"#utility.yul\":979:983   */\n      dup3\n        /* \"#utility.yul\":957:984   */\n      tag_73\n      jump\t// in\n    tag_123:\n        /* \"#utility.yul\":949:955   */\n      dup2\n        /* \"#utility.yul\":945:985   */\n      add\n        /* \"#utility.yul\":1087:1093   */\n      dup2\n        /* \"#utility.yul\":1075:1085   */\n      dup2\n        /* \"#utility.yul\":1072:1094   */\n      lt\n        /* \"#utility.yul\":1051:1069   */\n      0xffffffffffffffff\n        /* \"#utility.yul\":1039:1049   */\n      dup3\n        /* \"#utility.yul\":1036:1070   */\n      gt\n        /* \"#utility.yul\":1033:1095   */\n      or\n        /* \"#utility.yul\":1030:1118   */\n      iszero\n      tag_124\n      jumpi\n        /* \"#utility.yul\":1098:1116   */\n      tag_125\n      tag_74\n      jump\t// in\n    tag_125:\n        /* \"#utility.yul\":1030:1118   */\n    tag_124:\n        /* \"#utility.yul\":1138:1148   */\n      dup1\n        /* \"#utility.yul\":1134:1136   */\n      0x40\n        /* \"#utility.yul\":1127:1149   */\n      mstore\n        /* \"#utility.yul\":917:1155   */\n      pop\n        /* \"#utility.yul\":874:1155   */\n      pop\n      pop\n      jump\t// out\n        /* \"#utility.yul\":1161:1290   */\n    tag_76:\n        /* \"#utility.yul\":1195:1201   */\n      0x00\n        /* \"#utility.yul\":1222:1242   */\n      tag_127\n      tag_68\n      jump\t// in\n    tag_127:\n        /* \"#utility.yul\":1212:1242   */\n      swap1\n      pop\n        /* \"#utility.yul\":1251:1284   */\n      tag_128\n        /* \"#utility.yul\":1279:1283   */\n      dup3\n        /* \"#utility.yul\":1271:1277   */\n      dup3\n        /* \"#utility.yul\":1251:1284   */\n      tag_75\n      jump\t// in\n    tag_128:\n        /* \"#utility.yul\":1161:1290   */\n      swap2\n      swap1\n      pop\n      jump\t// out\n        /* \"#utility.yul\":1296:1604   */\n    tag_77:\n        /* \"#utility.yul\":1358:1362   */\n      0x00\n        /* \"#utility.yul\":1448:1466   */\n      0xffffffffffffffff\n        /* \"#utility.yul\":1440:1446   */\n      dup3\n        /* \"#utility.yul\":1437:1467   */\n      gt\n        /* \"#utility.yul\":1434:1490   */\n      iszero\n      tag_130\n      jumpi\n        /* \"#utility.yul\":1470:1488   */\n      tag_131\n      tag_74\n      jump\t// in\n    tag_131:\n        /* \"#utility.yul\":1434:1490   */\n    tag_130:\n        /* \"#utility.yul\":1508:1537   */\n      tag_132\n        /* \"#utility.yul\":1530:1536   */\n      dup3\n        /* \"#utility.yul\":1508:1537   */\n      tag_73\n      jump\t// in\n    tag_132:\n        /* \"#utility.yul\":1500:1537   */\n      swap1\n      pop\n        /* \"#utility.yul\":1592:1596   */\n      0x20\n        /* \"#utility.yul\":1586:1590   */\n      dup2\n        /* \"#utility.yul\":1582:1597   */\n      add\n        /* \"#utility.yul\":1574:1597   */\n      swap1\n      pop\n        /* \"#utility.yul\":1296:1604   */\n      swap2\n      swap1\n      pop\n      jump\t// out\n        /* \"#utility.yul\":1610:1758   */\n    tag_78:\n        /* \"#utility.yul\":1708:1714   */\n      dup3\n        /* \"#utility.yul\":1703:1706   */\n      dup2\n        /* \"#utility.yul\":1698:1701   */\n      dup4\n        /* \"#utility.yul\":1685:1715   */\n      calldatacopy\n        /* \"#utility.yul\":1749:1750   */\n      0x00\n        /* \"#utility.yul\":1740:1746   */\n      dup4\n        /* \"#utility.yul\":1735:1738   */\n      dup4\n        /* \"#utility.yul\":1731:1747   */\n      add\n        /* \"#utility.yul\":1724:1751   */\n      mstore\n        /* \"#utility.yul\":1610:1758   */\n      pop\n      pop\n      pop\n      jump\t// out\n        /* \"#utility.yul\":1764:2189   */\n    tag_79:\n        /* \"#utility.yul\":1842:1847   */\n      0x00\n        /* \"#utility.yul\":1867:1933   */\n      tag_135\n        /* \"#utility.yul\":1883:1932   */\n      tag_136\n        /* \"#utility.yul\":1925:1931   */\n      dup5\n        /* \"#utility.yul\":1883:1932   */\n      tag_77\n      jump\t// in\n    tag_136:\n        /* \"#utility.yul\":1867:1933   */\n      tag_76\n      jump\t// in\n    tag_135:\n        /* \"#utility.yul\":1858:1933   */\n      swap1\n      pop\n        /* \"#utility.yul\":1956:1962   */\n      dup3\n        /* \"#utility.yul\":1949:1954   */\n      dup2\n        /* \"#utility.yul\":1942:1963   */\n      mstore\n        /* \"#utility.yul\":1994:1998   */\n      0x20\n        /* \"#utility.yul\":1987:1992   */\n      dup2\n        /* \"#utility.yul\":1983:1999   */\n      add\n        /* \"#utility.yul\":2032:2035   */\n      dup5\n        /* \"#utility.yul\":2023:2029   */\n      dup5\n        /* \"#utility.yul\":2018:2021   */\n      dup5\n        /* \"#utility.yul\":2014:2030   */\n      add\n        /* \"#utility.yul\":2011:2036   */\n      gt\n        /* \"#utility.yul\":2008:2120   */\n      iszero\n      tag_137\n      jumpi\n        /* \"#utility.yul\":2039:2118   */\n      tag_138\n      tag_72\n      jump\t// in\n    tag_138:\n        /* \"#utility.yul\":2008:2120   */\n    tag_137:\n        /* \"#utility.yul\":2129:2183   */\n      tag_139\n        /* \"#utility.yul\":2176:2182   */\n      dup5\n        /* \"#utility.yul\":2171:2174   */\n      dup3\n        /* \"#utility.yul\":2166:2169   */\n      dup6\n        /* \"#utility.yul\":2129:2183   */\n      tag_78\n      jump\t// in\n    tag_139:\n        /* \"#utility.yul\":1848:2189   */\n      pop\n        /* \"#utility.yul\":1764:2189   */\n      swap4\n      swap3\n      pop\n      pop\n      pop\n      jump\t// out\n        /* \"#utility.yul\":2209:2549   */\n    tag_80:\n        /* \"#utility.yul\":2265:2270   */\n      0x00\n        /* \"#utility.yul\":2314:2317   */\n      dup3\n        /* \"#utility.yul\":2307:2311   */\n      0x1f\n        /* \"#utility.yul\":2299:2305   */\n      dup4\n        /* \"#utility.yul\":2295:2312   */\n      add\n        /* \"#utility.yul\":2291:2318   */\n      slt\n        /* \"#utility.yul\":2281:2403   */\n      tag_141\n      jumpi\n        /* \"#utility.yul\":2322:2401   */\n      tag_142\n      tag_71\n      jump\t// in\n    tag_142:\n        /* \"#utility.yul\":2281:2403   */\n    tag_141:\n        /* \"#utility.yul\":2439:2445   */\n      dup2\n        /* \"#utility.yul\":2426:2446   */\n      calldataload\n        /* \"#utility.yul\":2464:2543   */\n      tag_143\n        /* \"#utility.yul\":2539:2542   */\n      dup5\n        /* \"#utility.yul\":2531:2537   */\n      dup3\n        /* \"#utility.yul\":2524:2528   */\n      0x20\n        /* \"#utility.yul\":2516:2522   */\n      dup7\n        /* \"#utility.yul\":2512:2529   */\n      add\n        /* \"#utility.yul\":2464:2543   */\n      tag_79\n      jump\t// in\n    tag_143:\n        /* \"#utility.yul\":2455:2543   */\n      swap2\n      pop\n        /* \"#utility.yul\":2271:2549   */\n      pop\n        /* \"#utility.yul\":2209:2549   */\n      swap3\n      swap2\n      pop\n      pop\n      jump\t// out\n        /* \"#utility.yul\":2555:3064   */\n    tag_11:\n        /* \"#utility.yul\":2624:2630   */\n      0x00\n        /* \"#utility.yul\":2673:2675   */\n      0x20\n        /* \"#utility.yul\":2661:2670   */\n      dup3\n        /* \"#utility.yul\":2652:2659   */\n      dup5\n        /* \"#utility.yul\":2648:2671   */\n      sub\n        /* \"#utility.yul\":2644:2676   */\n      slt\n        /* \"#utility.yul\":2641:2760   */\n      iszero\n      tag_145\n      jumpi\n        /* \"#utility.yul\":2679:2758   */\n      tag_146\n      tag_69\n      jump\t// in\n    tag_146:\n        /* \"#utility.yul\":2641:2760   */\n    tag_145:\n        /* \"#utility.yul\":2827:2828   */\n      0x00\n        /* \"#utility.yul\":2816:2825   */\n      dup3\n        /* \"#utility.yul\":2812:2829   */\n      add\n        /* \"#utility.yul\":2799:2830   */\n      calldataload\n        /* \"#utility.yul\":2857:2875   */\n      0xffffffffffffffff\n        /* \"#utility.yul\":2849:2855   */\n      dup2\n        /* \"#utility.yul\":2846:2876   */\n      gt\n        /* \"#utility.yul\":2843:2960   */\n      iszero\n      tag_147\n      jumpi\n        /* \"#utility.yul\":2879:2958   */\n      tag_148\n      tag_70\n      jump\t// in\n    tag_148:\n        /* \"#utility.yul\":2843:2960   */\n    tag_147:\n        /* \"#utility.yul\":2984:3047   */\n      tag_149\n        /* \"#utility.yul\":3039:3046   */\n      dup5\n        /* \"#utility.yul\":3030:3036   */\n      dup3\n        /* \"#utility.yul\":3019:3028   */\n      dup6\n        /* \"#utility.yul\":3015:3037   */\n      add\n        /* \"#utility.yul\":2984:3047   */\n      tag_80\n      jump\t// in\n    tag_149:\n        /* \"#utility.yul\":2974:3047   */\n      swap2\n      pop\n        /* \"#utility.yul\":2770:3057   */\n      pop\n        /* \"#utility.yul\":2555:3064   */\n      swap3\n      swap2\n      pop\n      pop\n      jump\t// out\n        /* \"#utility.yul\":3070:3194   */\n    tag_81:\n        /* \"#utility.yul\":3147:3153   */\n      0x00\n        /* \"#utility.yul\":3181:3186   */\n      dup2\n        /* \"#utility.yul\":3175:3187   */\n      mload\n        /* \"#utility.yul\":3165:3187   */\n      swap1\n      pop\n        /* \"#utility.yul\":3070:3194   */\n      swap2\n      swap1\n      pop\n      jump\t// out\n        /* \"#utility.yul\":3200:3394   */\n    tag_82:\n        /* \"#utility.yul\":3309:3320   */\n      0x00\n        /* \"#utility.yul\":3343:3349   */\n      dup3\n        /* \"#utility.yul\":3338:3341   */\n      dup3\n        /* \"#utility.yul\":3331:3350   */\n      mstore\n        /* \"#utility.yul\":3383:3387   */\n      0x20\n        /* \"#utility.yul\":3378:3381   */\n      dup3\n        /* \"#utility.yul\":3374:3388   */\n      add\n        /* \"#utility.yul\":3359:3388   */\n      swap1\n      pop\n        /* \"#utility.yul\":3200:3394   */\n      swap3\n      swap2\n      pop\n      pop\n      jump\t// out\n        /* \"#utility.yul\":3400:3542   */\n    tag_83:\n        /* \"#utility.yul\":3477:3481   */\n      0x00\n        /* \"#utility.yul\":3500:3503   */\n      dup2\n        /* \"#utility.yul\":3492:3503   */\n      swap1\n      pop\n        /* \"#utility.yul\":3530:3534   */\n      0x20\n        /* \"#utility.yul\":3525:3528   */\n      dup3\n        /* \"#utility.yul\":3521:3535   */\n      add\n        /* \"#utility.yul\":3513:3535   */\n      swap1\n      pop\n        /* \"#utility.yul\":3400:3542   */\n      swap2\n      swap1\n      pop\n      jump\t// out\n        /* \"#utility.yul\":3548:3647   */\n    tag_84:\n        /* \"#utility.yul\":3600:3606   */\n      0x00\n        /* \"#utility.yul\":3634:3639   */\n      dup2\n        /* \"#utility.yul\":3628:3640   */\n      mload\n        /* \"#utility.yul\":3618:3640   */\n      swap1\n      pop\n        /* \"#utility.yul\":3548:3647   */\n      swap2\n      swap1\n      pop\n      jump\t// out\n        /* \"#utility.yul\":3653:3812   */\n    tag_85:\n        /* \"#utility.yul\":3727:3738   */\n      0x00\n        /* \"#utility.yul\":3761:3767   */\n      dup3\n        /* \"#utility.yul\":3756:3759   */\n      dup3\n        /* \"#utility.yul\":3749:3768   */\n      mstore\n        /* \"#utility.yul\":3801:3805   */\n      0x20\n        /* \"#utility.yul\":3796:3799   */\n      dup3\n        /* \"#utility.yul\":3792:3806   */\n      add\n        /* \"#utility.yul\":3777:3806   */\n      swap1\n      pop\n        /* \"#utility.yul\":3653:3812   */\n      swap3\n      swap2\n      pop\n      pop\n      jump\t// out\n        /* \"#utility.yul\":3818:3957   */\n    tag_86:\n        /* \"#utility.yul\":3907:3913   */\n      dup3\n        /* \"#utility.yul\":3902:3905   */\n      dup2\n        /* \"#utility.yul\":3897:3900   */\n      dup4\n        /* \"#utility.yul\":3891:3914   */\n      mcopy\n        /* \"#utility.yul\":3948:3949   */\n      0x00\n        /* \"#utility.yul\":3939:3945   */\n      dup4\n        /* \"#utility.yul\":3934:3937   */\n      dup4\n        /* \"#utility.yul\":3930:3946   */\n      add\n        /* \"#utility.yul\":3923:3950   */\n      mstore\n        /* \"#utility.yul\":3818:3957   */\n      pop\n      pop\n      pop\n      jump\t// out\n        /* \"#utility.yul\":3963:4320   */\n    tag_87:\n        /* \"#utility.yul\":4041:4044   */\n      0x00\n        /* \"#utility.yul\":4069:4108   */\n      tag_157\n        /* \"#utility.yul\":4102:4107   */\n      dup3\n        /* \"#utility.yul\":4069:4108   */\n      tag_84\n      jump\t// in\n    tag_157:\n        /* \"#utility.yul\":4124:4185   */\n      tag_158\n        /* \"#utility.yul\":4178:4184   */\n      dup2\n        /* \"#utility.yul\":4173:4176   */\n      dup6\n        /* \"#utility.yul\":4124:4185   */\n      tag_85\n      jump\t// in\n    tag_158:\n        /* \"#utility.yul\":4117:4185   */\n      swap4\n      pop\n        /* \"#utility.yul\":4194:4259   */\n      tag_159\n        /* \"#utility.yul\":4252:4258   */\n      dup2\n        /* \"#utility.yul\":4247:4250   */\n      dup6\n        /* \"#utility.yul\":4240:4244   */\n      0x20\n        /* \"#utility.yul\":4233:4238   */\n      dup7\n        /* \"#utility.yul\":4229:4245   */\n      add\n        /* \"#utility.yul\":4194:4259   */\n      tag_86\n      jump\t// in\n    tag_159:\n        /* \"#utility.yul\":4284:4313   */\n      tag_160\n        /* \"#utility.yul\":4306:4312   */\n      dup2\n        /* \"#utility.yul\":4284:4313   */\n      tag_73\n      jump\t// in\n    tag_160:\n        /* \"#utility.yul\":4279:4282   */\n      dup5\n        /* \"#utility.yul\":4275:4314   */\n      add\n        /* \"#utility.yul\":4268:4314   */\n      swap2\n      pop\n        /* \"#utility.yul\":4045:4320   */\n      pop\n        /* \"#utility.yul\":3963:4320   */\n      swap3\n      swap2\n      pop\n      pop\n      jump\t// out\n        /* \"#utility.yul\":4326:4522   */\n    tag_88:\n        /* \"#utility.yul\":4415:4425   */\n      0x00\n        /* \"#utility.yul\":4450:4516   */\n      tag_162\n        /* \"#utility.yul\":4512:4515   */\n      dup4\n        /* \"#utility.yul\":4504:4510   */\n      dup4\n        /* \"#utility.yul\":4450:4516   */\n      tag_87\n      jump\t// in\n    tag_162:\n        /* \"#utility.yul\":4436:4516   */\n      swap1\n      pop\n        /* \"#utility.yul\":4326:4522   */\n      swap3\n      swap2\n      pop\n      pop\n      jump\t// out\n        /* \"#utility.yul\":4528:4651   */\n    tag_89:\n        /* \"#utility.yul\":4608:4612   */\n      0x00\n        /* \"#utility.yul\":4640:4644   */\n      0x20\n        /* \"#utility.yul\":4635:4638   */\n      dup3\n        /* \"#utility.yul\":4631:4645   */\n      add\n        /* \"#utility.yul\":4623:4645   */\n      swap1\n      pop\n        /* \"#utility.yul\":4528:4651   */\n      swap2\n      swap1\n      pop\n      jump\t// out\n        /* \"#utility.yul\":4685:5676   */\n    tag_90:\n        /* \"#utility.yul\":4824:4827   */\n      0x00\n        /* \"#utility.yul\":4853:4917   */\n      tag_165\n        /* \"#utility.yul\":4911:4916   */\n      dup3\n        /* \"#utility.yul\":4853:4917   */\n      tag_81\n      jump\t// in\n    tag_165:\n        /* \"#utility.yul\":4933:5029   */\n      tag_166\n        /* \"#utility.yul\":5022:5028   */\n      dup2\n        /* \"#utility.yul\":5017:5020   */\n      dup6\n        /* \"#utility.yul\":4933:5029   */\n      tag_82\n      jump\t// in\n    tag_166:\n        /* \"#utility.yul\":4926:5029   */\n      swap4\n      pop\n        /* \"#utility.yul\":5055:5058   */\n      dup4\n        /* \"#utility.yul\":5100:5104   */\n      0x20\n        /* \"#utility.yul\":5092:5098   */\n      dup3\n        /* \"#utility.yul\":5088:5105   */\n      mul\n        /* \"#utility.yul\":5083:5086   */\n      dup6\n        /* \"#utility.yul\":5079:5106   */\n      add\n        /* \"#utility.yul\":5130:5196   */\n      tag_167\n        /* \"#utility.yul\":5190:5195   */\n      dup6\n        /* \"#utility.yul\":5130:5196   */\n      tag_83\n      jump\t// in\n    tag_167:\n        /* \"#utility.yul\":5219:5226   */\n      dup1\n        /* \"#utility.yul\":5250:5251   */\n      0x00\n        /* \"#utility.yul\":5235:5631   */\n    tag_168:\n        /* \"#utility.yul\":5260:5266   */\n      dup6\n        /* \"#utility.yul\":5257:5258   */\n      dup2\n        /* \"#utility.yul\":5254:5267   */\n      lt\n        /* \"#utility.yul\":5235:5631   */\n      iszero\n      tag_170\n      jumpi\n        /* \"#utility.yul\":5331:5340   */\n      dup5\n        /* \"#utility.yul\":5325:5329   */\n      dup5\n        /* \"#utility.yul\":5321:5341   */\n      sub\n        /* \"#utility.yul\":5316:5319   */\n      dup10\n        /* \"#utility.yul\":5309:5342   */\n      mstore\n        /* \"#utility.yul\":5382:5388   */\n      dup2\n        /* \"#utility.yul\":5376:5389   */\n      mload\n        /* \"#utility.yul\":5410:5494   */\n      tag_171\n        /* \"#utility.yul\":5489:5493   */\n      dup6\n        /* \"#utility.yul\":5474:5487   */\n      dup3\n        /* \"#utility.yul\":5410:5494   */\n      tag_88\n      jump\t// in\n    tag_171:\n        /* \"#utility.yul\":5402:5494   */\n      swap5\n      pop\n        /* \"#utility.yul\":5517:5587   */\n      tag_172\n        /* \"#utility.yul\":5580:5586   */\n      dup4\n        /* \"#utility.yul\":5517:5587   */\n      tag_89\n      jump\t// in\n    tag_172:\n        /* \"#utility.yul\":5507:5587   */\n      swap3\n      pop\n        /* \"#utility.yul\":5616:5620   */\n      0x20\n        /* \"#utility.yul\":5611:5614   */\n      dup11\n        /* \"#utility.yul\":5607:5621   */\n      add\n        /* \"#utility.yul\":5600:5621   */\n      swap10\n      pop\n        /* \"#utility.yul\":5295:5631   */\n      pop\n        /* \"#utility.yul\":5282:5283   */\n      0x01\n        /* \"#utility.yul\":5279:5280   */\n      dup2\n        /* \"#utility.yul\":5275:5284   */\n      add\n        /* \"#utility.yul\":5270:5284   */\n      swap1\n      pop\n        /* \"#utility.yul\":5235:5631   */\n      jump(tag_168)\n    tag_170:\n        /* \"#utility.yul\":5239:5253   */\n      pop\n        /* \"#utility.yul\":5647:5651   */\n      dup3\n        /* \"#utility.yul\":5640:5651   */\n      swap8\n      pop\n        /* \"#utility.yul\":5667:5670   */\n      dup8\n        /* \"#utility.yul\":5660:5670   */\n      swap6\n      pop\n        /* \"#utility.yul\":4829:5676   */\n      pop\n      pop\n      pop\n      pop\n      pop\n        /* \"#utility.yul\":4685:5676   */\n      swap3\n      swap2\n      pop\n      pop\n      jump\t// out\n        /* \"#utility.yul\":5682:6095   */\n    tag_16:\n        /* \"#utility.yul\":5845:5849   */\n      0x00\n        /* \"#utility.yul\":5883:5885   */\n      0x20\n        /* \"#utility.yul\":5872:5881   */\n      dup3\n        /* \"#utility.yul\":5868:5886   */\n      add\n        /* \"#utility.yul\":5860:5886   */\n      swap1\n      pop\n        /* \"#utility.yul\":5932:5941   */\n      dup2\n        /* \"#utility.yul\":5926:5930   */\n      dup2\n        /* \"#utility.yul\":5922:5942   */\n      sub\n        /* \"#utility.yul\":5918:5919   */\n      0x00\n        /* \"#utility.yul\":5907:5916   */\n      dup4\n        /* \"#utility.yul\":5903:5920   */\n      add\n        /* \"#utility.yul\":5896:5943   */\n      mstore\n        /* \"#utility.yul\":5960:6088   */\n      tag_174\n        /* \"#utility.yul\":6083:6087   */\n      dup2\n        /* \"#utility.yul\":6074:6080   */\n      dup5\n        /* \"#utility.yul\":5960:6088   */\n      tag_90\n      jump\t// in\n    tag_174:\n        /* \"#utility.yul\":5952:6088   */\n      swap1\n      pop\n        /* \"#utility.yul\":5682:6095   */\n      swap3\n      swap2\n      pop\n      pop\n      jump\t// out\n        /* \"#utility.yul\":6101:6178   */\n    tag_91:\n        /* \"#utility.yul\":6138:6145   */\n      0x00\n        /* \"#utility.yul\":6167:6172   */\n      dup2\n        /* \"#utility.yul\":6156:6172   */\n      swap1\n      pop\n        /* \"#utility.yul\":6101:6178   */\n      swap2\n      swap1\n      pop\n      jump\t// out\n        /* \"#utility.yul\":6184:6306   */\n    tag_92:\n        /* \"#utility.yul\":6257:6281   */\n      tag_177\n        /* \"#utility.yul\":6275:6280   */\n      dup2\n        /* \"#utility.yul\":6257:6281   */\n      tag_91\n      jump\t// in\n    tag_177:\n        /* \"#utility.yul\":6250:6255   */\n      dup2\n        /* \"#utility.yul\":6247:6282   */\n      eq\n        /* \"#utility.yul\":6237:6300   */\n      tag_178\n      jumpi\n        /* \"#utility.yul\":6296:6297   */\n      0x00\n        /* \"#utility.yul\":6293:6294   */\n      dup1\n        /* \"#utility.yul\":6286:6298   */\n      revert\n        /* \"#utility.yul\":6237:6300   */\n    tag_178:\n        /* \"#utility.yul\":6184:6306   */\n      pop\n      jump\t// out\n        /* \"#utility.yul\":6312:6451   */\n    tag_93:\n        /* \"#utility.yul\":6358:6363   */\n      0x00\n        /* \"#utility.yul\":6396:6402   */\n      dup2\n        /* \"#utility.yul\":6383:6403   */\n      calldataload\n        /* \"#utility.yul\":6374:6403   */\n      swap1\n      pop\n        /* \"#utility.yul\":6412:6445   */\n      tag_180\n        /* \"#utility.yul\":6439:6444   */\n      dup2\n        /* \"#utility.yul\":6412:6445   */\n      tag_92\n      jump\t// in\n    tag_180:\n        /* \"#utility.yul\":6312:6451   */\n      swap3\n      swap2\n      pop\n      pop\n      jump\t// out\n        /* \"#utility.yul\":6457:6786   */\n    tag_19:\n        /* \"#utility.yul\":6516:6522   */\n      0x00\n        /* \"#utility.yul\":6565:6567   */\n      0x20\n        /* \"#utility.yul\":6553:6562   */\n      dup3\n        /* \"#utility.yul\":6544:6551   */\n      dup5\n        /* \"#utility.yul\":6540:6563   */\n      sub\n        /* \"#utility.yul\":6536:6568   */\n      slt\n        /* \"#utility.yul\":6533:6652   */\n      iszero\n      tag_182\n      jumpi\n        /* \"#utility.yul\":6571:6650   */\n      tag_183\n      tag_69\n      jump\t// in\n    tag_183:\n        /* \"#utility.yul\":6533:6652   */\n    tag_182:\n        /* \"#utility.yul\":6691:6692   */\n      0x00\n        /* \"#utility.yul\":6716:6769   */\n      tag_184\n        /* \"#utility.yul\":6761:6768   */\n      dup5\n        /* \"#utility.yul\":6752:6758   */\n      dup3\n        /* \"#utility.yul\":6741:6750   */\n      dup6\n        /* \"#utility.yul\":6737:6759   */\n      add\n        /* \"#utility.yul\":6716:6769   */\n      tag_93\n      jump\t// in\n    tag_184:\n        /* \"#utility.yul\":6706:6769   */\n      swap2\n      pop\n        /* \"#utility.yul\":6662:6779   */\n      pop\n        /* \"#utility.yul\":6457:6786   */\n      swap3\n      swap2\n      pop\n      pop\n      jump\t// out\n        /* \"#utility.yul\":6792:6961   */\n    tag_94:\n        /* \"#utility.yul\":6876:6887   */\n      0x00\n        /* \"#utility.yul\":6910:6916   */\n      dup3\n        /* \"#utility.yul\":6905:6908   */\n      dup3\n        /* \"#utility.yul\":6898:6917   */\n      mstore\n        /* \"#utility.yul\":6950:6954   */\n      0x20\n        /* \"#utility.yul\":6945:6948   */\n      dup3\n        /* \"#utility.yul\":6941:6955   */\n      add\n        /* \"#utility.yul\":6926:6955   */\n      swap1\n      pop\n        /* \"#utility.yul\":6792:6961   */\n      swap3\n      swap2\n      pop\n      pop\n      jump\t// out\n        /* \"#utility.yul\":6967:7344   */\n    tag_95:\n        /* \"#utility.yul\":7055:7058   */\n      0x00\n        /* \"#utility.yul\":7083:7122   */\n      tag_187\n        /* \"#utility.yul\":7116:7121   */\n      dup3\n        /* \"#utility.yul\":7083:7122   */\n      tag_84\n      jump\t// in\n    tag_187:\n        /* \"#utility.yul\":7138:7209   */\n      tag_188\n        /* \"#utility.yul\":7202:7208   */\n      dup2\n        /* \"#utility.yul\":7197:7200   */\n      dup6\n        /* \"#utility.yul\":7138:7209   */\n      tag_94\n      jump\t// in\n    tag_188:\n        /* \"#utility.yul\":7131:7209   */\n      swap4\n      pop\n        /* \"#utility.yul\":7218:7283   */\n      tag_189\n        /* \"#utility.yul\":7276:7282   */\n      dup2\n        /* \"#utility.yul\":7271:7274   */\n      dup6\n        /* \"#utility.yul\":7264:7268   */\n      0x20\n        /* \"#utility.yul\":7257:7262   */\n      dup7\n        /* \"#utility.yul\":7253:7269   */\n      add\n        /* \"#utility.yul\":7218:7283   */\n      tag_86\n      jump\t// in\n    tag_189:\n        /* \"#utility.yul\":7308:7337   */\n      tag_190\n        /* \"#utility.yul\":7330:7336   */\n      dup2\n        /* \"#utility.yul\":7308:7337   */\n      tag_73\n      jump\t// in\n    tag_190:\n        /* \"#utility.yul\":7303:7306   */\n      dup5\n        /* \"#utility.yul\":7299:7338   */\n      add\n        /* \"#utility.yul\":7292:7338   */\n      swap2\n      pop\n        /* \"#utility.yul\":7059:7344   */\n      pop\n        /* \"#utility.yul\":6967:7344   */\n      swap3\n      swap2\n      pop\n      pop\n      jump\t// out\n        /* \"#utility.yul\":7350:7663   */\n    tag_22:\n        /* \"#utility.yul\":7463:7467   */\n      0x00\n        /* \"#utility.yul\":7501:7503   */\n      0x20\n        /* \"#utility.yul\":7490:7499   */\n      dup3\n        /* \"#utility.yul\":7486:7504   */\n      add\n        /* \"#utility.yul\":7478:7504   */\n      swap1\n      pop\n        /* \"#utility.yul\":7550:7559   */\n      dup2\n        /* \"#utility.yul\":7544:7548   */\n      dup2\n        /* \"#utility.yul\":7540:7560   */\n      sub\n        /* \"#utility.yul\":7536:7537   */\n      0x00\n        /* \"#utility.yul\":7525:7534   */\n      dup4\n        /* \"#utility.yul\":7521:7538   */\n      add\n        /* \"#utility.yul\":7514:7561   */\n      mstore\n        /* \"#utility.yul\":7578:7656   */\n      tag_192\n        /* \"#utility.yul\":7651:7655   */\n      dup2\n        /* \"#utility.yul\":7642:7648   */\n      dup5\n        /* \"#utility.yul\":7578:7656   */\n      tag_95\n      jump\t// in\n    tag_192:\n        /* \"#utility.yul\":7570:7656   */\n      swap1\n      pop\n        /* \"#utility.yul\":7350:7663   */\n      swap3\n      swap2\n      pop\n      pop\n      jump\t// out\n        /* \"#utility.yul\":7669:7787   */\n    tag_96:\n        /* \"#utility.yul\":7756:7780   */\n      tag_194\n        /* \"#utility.yul\":7774:7779   */\n      dup2\n        /* \"#utility.yul\":7756:7780   */\n      tag_91\n      jump\t// in\n    tag_194:\n        /* \"#utility.yul\":7751:7754   */\n      dup3\n        /* \"#utility.yul\":7744:7781   */\n      mstore\n        /* \"#utility.yul\":7669:7787   */\n      pop\n      pop\n      jump\t// out\n        /* \"#utility.yul\":7793:8015   */\n    tag_29:\n        /* \"#utility.yul\":7886:7890   */\n      0x00\n        /* \"#utility.yul\":7924:7926   */\n      0x20\n        /* \"#utility.yul\":7913:7922   */\n      dup3\n        /* \"#utility.yul\":7909:7927   */\n      add\n        /* \"#utility.yul\":7901:7927   */\n      swap1\n      pop\n        /* \"#utility.yul\":7937:8008   */\n      tag_196\n        /* \"#utility.yul\":8005:8006   */\n      0x00\n        /* \"#utility.yul\":7994:8003   */\n      dup4\n        /* \"#utility.yul\":7990:8007   */\n      add\n        /* \"#utility.yul\":7981:7987   */\n      dup5\n        /* \"#utility.yul\":7937:8008   */\n      tag_96\n      jump\t// in\n    tag_196:\n        /* \"#utility.yul\":7793:8015   */\n      swap3\n      swap2\n      pop\n      pop\n      jump\t// out\n        /* \"#utility.yul\":8021:8201   */\n    tag_97:\n        /* \"#utility.yul\":8069:8146   */\n      0x4e487b7100000000000000000000000000000000000000000000000000000000\n        /* \"#utility.yul\":8066:8067   */\n      0x00\n        /* \"#utility.yul\":8059:8147   */\n      mstore\n        /* \"#utility.yul\":8166:8170   */\n      0x22\n        /* \"#utility.yul\":8163:8164   */\n      0x04\n        /* \"#utility.yul\":8156:8171   */\n      mstore\n        /* \"#utility.yul\":8190:8194   */\n      0x24\n        /* \"#utility.yul\":8187:8188   */\n      0x00\n        /* \"#utility.yul\":8180:8195   */\n      revert\n        /* \"#utility.yul\":8207:8527   */\n    tag_45:\n        /* \"#utility.yul\":8251:8257   */\n      0x00\n        /* \"#utility.yul\":8288:8289   */\n      0x02\n        /* \"#utility.yul\":8282:8286   */\n      dup3\n        /* \"#utility.yul\":8278:8290   */\n      div\n        /* \"#utility.yul\":8268:8290   */\n      swap1\n      pop\n        /* \"#utility.yul\":8335:8336   */\n      0x01\n        /* \"#utility.yul\":8329:8333   */\n      dup3\n        /* \"#utility.yul\":8325:8337   */\n      and\n        /* \"#utility.yul\":8356:8374   */\n      dup1\n        /* \"#utility.yul\":8346:8427   */\n      tag_199\n      jumpi\n        /* \"#utility.yul\":8412:8416   */\n      0x7f\n        /* \"#utility.yul\":8404:8410   */\n      dup3\n        /* \"#utility.yul\":8400:8417   */\n      and\n        /* \"#utility.yul\":8390:8417   */\n      swap2\n      pop\n        /* \"#utility.yul\":8346:8427   */\n    tag_199:\n        /* \"#utility.yul\":8474:8476   */\n      0x20\n        /* \"#utility.yul\":8466:8472   */\n      dup3\n        /* \"#utility.yul\":8463:8477   */\n      lt\n        /* \"#utility.yul\":8443:8461   */\n      dup2\n        /* \"#utility.yul\":8440:8478   */\n      sub\n        /* \"#utility.yul\":8437:8521   */\n      tag_200\n      jumpi\n        /* \"#utility.yul\":8493:8511   */\n      tag_201\n      tag_97\n      jump\t// in\n    tag_201:\n        /* \"#utility.yul\":8437:8521   */\n    tag_200:\n        /* \"#utility.yul\":8258:8527   */\n      pop\n        /* \"#utility.yul\":8207:8527   */\n      swap2\n      swap1\n      pop\n      jump\t// out\n        /* \"#utility.yul\":8533:8674   */\n    tag_98:\n        /* \"#utility.yul\":8582:8586   */\n      0x00\n        /* \"#utility.yul\":8605:8608   */\n      dup2\n        /* \"#utility.yul\":8597:8608   */\n      swap1\n      pop\n        /* \"#utility.yul\":8628:8631   */\n      dup2\n        /* \"#utility.yul\":8625:8626   */\n      0x00\n        /* \"#utility.yul\":8618:8632   */\n      mstore\n        /* \"#utility.yul\":8662:8666   */\n      0x20\n        /* \"#utility.yul\":8659:8660   */\n      0x00\n        /* \"#utility.yul\":8649:8667   */\n      keccak256\n        /* \"#utility.yul\":8641:8667   */\n      swap1\n      pop\n        /* \"#utility.yul\":8533:8674   */\n      swap2\n      swap1\n      pop\n      jump\t// out\n        /* \"#utility.yul\":8680:8773   */\n    tag_99:\n        /* \"#utility.yul\":8717:8723   */\n      0x00\n        /* \"#utility.yul\":8764:8766   */\n      0x20\n        /* \"#utility.yul\":8759:8761   */\n      0x1f\n        /* \"#utility.yul\":8752:8757   */\n      dup4\n        /* \"#utility.yul\":8748:8762   */\n      add\n        /* \"#utility.yul\":8744:8767   */\n      div\n        /* \"#utility.yul\":8734:8767   */\n      swap1\n      pop\n        /* \"#utility.yul\":8680:8773   */\n      swap2\n      swap1\n      pop\n      jump\t// out\n        /* \"#utility.yul\":8779:8886   */\n    tag_100:\n        /* \"#utility.yul\":8823:8831   */\n      0x00\n        /* \"#utility.yul\":8873:8878   */\n      dup3\n        /* \"#utility.yul\":8867:8871   */\n      dup3\n        /* \"#utility.yul\":8863:8879   */\n      shl\n        /* \"#utility.yul\":8842:8879   */\n      swap1\n      pop\n        /* \"#utility.yul\":8779:8886   */\n      swap3\n      swap2\n      pop\n      pop\n      jump\t// out\n        /* \"#utility.yul\":8892:9285   */\n    tag_101:\n        /* \"#utility.yul\":8961:8967   */\n      0x00\n        /* \"#utility.yul\":9011:9012   */\n      0x08\n        /* \"#utility.yul\":8999:9009   */\n      dup4\n        /* \"#utility.yul\":8995:9013   */\n      mul\n        /* \"#utility.yul\":9034:9131   */\n      tag_206\n        /* \"#utility.yul\":9064:9130   */\n      0xffffffffffffffffffffffffffffffffffffffffffffffffffffffffffffffff\n        /* \"#utility.yul\":9053:9062   */\n      dup3\n        /* \"#utility.yul\":9034:9131   */\n      tag_100\n      jump\t// in\n    tag_206:\n        /* \"#utility.yul\":9152:9191   */\n      tag_207\n        /* \"#utility.yul\":9182:9190   */\n      dup7\n        /* \"#utility.yul\":9171:9180   */\n      dup4\n        /* \"#utility.yul\":9152:9191   */\n      tag_100\n      jump\t// in\n    tag_207:\n        /* \"#utility.yul\":9140:9191   */\n      swap6\n      pop\n        /* \"#utility.yul\":9224:9228   */\n      dup1\n        /* \"#utility.yul\":9220:9229   */\n      not\n        /* \"#utility.yul\":9213:9218   */\n      dup5\n        /* \"#utility.yul\":9209:9230   */\n      and\n        /* \"#utility.yul\":9200:9230   */\n      swap4\n      pop\n        /* \"#utility.yul\":9273:9277   */\n      dup1\n        /* \"#utility.yul\":9263:9271   */\n      dup7\n        /* \"#utility.yul\":9259:9278   */\n      and\n        /* \"#utility.yul\":9252:9257   */\n      dup5\n        /* \"#utility.yul\":9249:9279   */\n      or\n        /* \"#utility.yul\":9239:9279   */\n      swap3\n      pop\n        /* \"#utility.yul\":8968:9285   */\n      pop\n      pop\n        /* \"#utility.yul\":8892:9285   */\n      swap4\n      swap3\n      pop\n      pop\n      pop\n      jump\t// out\n        /* \"#utility.yul\":9291:9351   */\n    tag_102:\n        /* \"#utility.yul\":9319:9322   */\n      0x00\n        /* \"#utility.yul\":9340:9345   */\n      dup2\n        /* \"#utility.yul\":9333:9345   */\n      swap1\n      pop\n        /* \"#utility.yul\":9291:9351   */\n      swap2\n      swap1\n      pop\n      jump\t// out\n        /* \"#utility.yul\":9357:9499   */\n    tag_103:\n        /* \"#utility.yul\":9407:9416   */\n      0x00\n        /* \"#utility.yul\":9440:9493   */\n      tag_210\n        /* \"#utility.yul\":9458:9492   */\n      tag_211\n        /* \"#utility.yul\":9467:9491   */\n      tag_212\n        /* \"#utility.yul\":9485:9490   */\n      dup5\n        /* \"#utility.yul\":9467:9491   */\n      tag_91\n      jump\t// in\n    tag_212:\n        /* \"#utility.yul\":9458:9492   */\n      tag_102\n      jump\t// in\n    tag_211:\n        /* \"#utility.yul\":9440:9493   */\n      tag_91\n      jump\t// in\n    tag_210:\n        /* \"#utility.yul\":9427:9493   */\n      swap1\n      pop\n        /* \"#utility.yul\":9357:9499   */\n      swap2\n      swap1\n      pop\n      jump\t// out\n        /* \"#utility.yul\":9505:9580   */\n    tag_104:\n        /* \"#utility.yul\":9548:9551   */\n      0x00\n        /* \"#utility.yul\":9569:9574   */\n      dup2\n        /* \"#utility.yul\":9562:9574   */\n      swap1\n      pop\n        /* \"#utility.yul\":9505:9580   */\n      swap2\n      swap1\n      pop\n      jump\t// out\n        /* \"#utility.yul\":9586:9855   */\n    tag_105:\n        /* \"#utility.yul\":9696:9735   */\n      tag_215\n        /* \"#utility.yul\":9727:9734   */\n      dup4\n        /* \"#utility.yul\":9696:9735   */\n      tag_103\n      jump\t// in\n    tag_215:\n        /* \"#utility.yul\":9757:9848   */\n      tag_216\n        /* \"#utility.yul\":9806:9847   */\n      tag_217\n        /* \"#utility.yul\":9830:9846   */\n      dup3\n        /* \"#utility.yul\":9806:9847   */\n      tag_104\n      jump\t// in\n    tag_217:\n        /* \"#utility.yul\":9798:9804   */\n      dup5\n        /* \"#utility.yul\":9791:9795   */\n      dup5\n        /* \"#utility.yul\":9785:9796   */\n      sload\n        /* \"#utility.yul\":9757:9848   */\n      tag_101\n      jump\t// in\n    tag_216:\n        /* \"#utility.yul\":9751:9755   */\n      dup3\n        /* \"#utility.yul\":9744:9849   */\n      sstore\n        /* \"#utility.yul\":9662:9855   */\n      pop\n        /* \"#utility.yul\":9586:9855   */\n      pop\n      pop\n      pop\n      jump\t// out\n        /* \"#utility.yul\":9861:9934   */\n    tag_106:\n        /* \"#utility.yul\":9906:9909   */\n      0x00\n        /* \"#utility.yul\":9861:9934   */\n      swap1\n      jump\t// out\n        /* \"#utility.yul\":9940:10129   */\n    tag_107:\n        /* \"#utility.yul\":10017:10049   */\n      tag_220\n      tag_106\n      jump\t// in\n    tag_220:\n        /* \"#utility.yul\":10058:10123   */\n      tag_221\n        /* \"#utility.yul\":10116:10122   */\n      dup2\n        /* \"#utility.yul\":10108:10114   */\n      dup5\n        /* \"#utility.yul\":10102:10106   */\n      dup5\n        /* \"#utility.yul\":10058:10123   */\n      tag_105\n      jump\t// in\n    tag_221:\n        /* \"#utility.yul\":9993:10129   */\n      pop\n        /* \"#utility.yul\":9940:10129   */\n      pop\n      pop\n      jump\t// out\n        /* \"#utility.yul\":10135:10321   */\n    tag_108:\n        /* \"#utility.yul\":10195:10315   */\n    tag_223:\n        /* \"#utility.yul\":10212:10215   */\n      dup2\n        /* \"#utility.yul\":10205:10210   */\n      dup2\n        /* \"#utility.yul\":10202:10216   */\n      lt\n        /* \"#utility.yul\":10195:10315   */\n      iszero\n      tag_225\n      jumpi\n        /* \"#utility.yul\":10266:10305   */\n      tag_226\n        /* \"#utility.yul\":10303:10304   */\n      0x00\n        /* \"#utility.yul\":10296:10301   */\n      dup3\n        /* \"#utility.yul\":10266:10305   */\n      tag_107\n      jump\t// in\n    tag_226:\n        /* \"#utility.yul\":10239:10240   */\n      0x01\n        /* \"#utility.yul\":10232:10237   */\n      dup2\n        /* \"#utility.yul\":10228:10241   */\n      add\n        /* \"#utility.yul\":10219:10241   */\n      swap1\n      pop\n        /* \"#utility.yul\":10195:10315   */\n      jump(tag_223)\n    tag_225:\n        /* \"#utility.yul\":10135:10321   */\n      pop\n      pop\n      jump\t// out\n        /* \"#utility.yul\":10327:10870   */\n    tag_109:\n        /* \"#utility.yul\":10428:10430   */\n      0x1f\n        /* \"#utility.yul\":10423:10426   */\n      dup3\n        /* \"#utility.yul\":10420:10431   */\n      gt\n        /* \"#utility.yul\":10417:10863   */\n      iszero\n      tag_228\n      jumpi\n        /* \"#utility.yul\":10462:10500   */\n      tag_229\n        /* \"#utility.yul\":10494:10499   */\n      dup2\n        /* \"#utility.yul\":10462:10500   */\n      tag_98\n      jump\t// in\n    tag_229:\n        /* \"#utility.yul\":10546:10575   */\n      tag_230\n        /* \"#utility.yul\":10564:10574   */\n      dup5\n        /* \"#utility.yul\":10546:10575   */\n      tag_99\n      jump\t// in\n    tag_230:\n        /* \"#utility.yul\":10536:10544   */\n      dup2\n        /* \"#utility.yul\":10532:10576   */\n      add\n        /* \"#utility.yul\":10729:10731   */\n      0x20\n        /* \"#utility.yul\":10717:10727   */\n      dup6\n        /* \"#utility.yul\":10714:10732   */\n      lt\n        /* \"#utility.yul\":10711:10760   */\n      iszero\n      tag_231\n      jumpi\n        /* \"#utility.yul\":10750:10758   */\n      dup2\n        /* \"#utility.yul\":10735:10758   */\n      swap1\n      pop\n        /* \"#utility.yul\":10711:10760   */\n    tag_231:\n        /* \"#utility.yul\":10773:10853   */\n      tag_232\n        /* \"#utility.yul\":10829:10851   */\n      tag_233\n        /* \"#utility.yul\":10847:10850   */\n      dup6\n        /* \"#utility.yul\":10829:10851   */\n      tag_99\n      jump\t// in\n    tag_233:\n        /* \"#utility.yul\":10819:10827   */\n      dup4\n        /* \"#utility.yul\":10815:10852   */\n      add\n        /* \"#utility.yul\":10802:10813   */\n      dup3\n        /* \"#utility.yul\":10773:10853   */\n      tag_108\n      jump\t// in\n    tag_232:\n        /* \"#utility.yul\":10432:10863   */\n      pop\n      pop\n        /* \"#utility.yul\":10417:10863   */\n    tag_228:\n        /* \"#utility.yul\":10327:10870   */\n      pop\n      pop\n      pop\n      jump\t// out\n        /* \"#utility.yul\":10876:10993   */\n    tag_110:\n        /* \"#utility.yul\":10930:10938   */\n      0x00\n        /* \"#utility.yul\":10980:10985   */\n      dup3\n        /* \"#utility.yul\":10974:10978   */\n      dup3\n        /* \"#utility.yul\":10970:10986   */\n      shr\n        /* \"#utility.yul\":10949:10986   */\n      swap1\n      pop\n        /* \"#utility.yul\":10876:10993   */\n      swap3\n      swap2\n      pop\n      pop\n      jump\t// out\n        /* \"#utility.yul\":10999:11168   */\n    tag_111:\n        /* \"#utility.yul\":11043:11049   */\n      0x00\n        /* \"#utility.yul\":11076:11127   */\n      tag_236\n        /* \"#utility.yul\":11124:11125   */\n      0x00\n        /* \"#utility.yul\":11120:11126   */\n      not\n        /* \"#utility.yul\":11112:11117   */\n      dup5\n        /* \"#utility.yul\":11109:11110   */\n      0x08\n        /* \"#utility.yul\":11105:11118   */\n      mul\n        /* \"#utility.yul\":11076:11127   */\n      tag_110\n      jump\t// in\n    tag_236:\n        /* \"#utility.yul\":11072:11128   */\n      not\n        /* \"#utility.yul\":11157:11161   */\n      dup1\n        /* \"#utility.yul\":11151:11155   */\n      dup4\n        /* \"#utility.yul\":11147:11162   */\n      and\n        /* \"#utility.yul\":11137:11162   */\n      swap2\n      pop\n        /* \"#utility.yul\":11050:11168   */\n      pop\n        /* \"#utility.yul\":10999:11168   */\n      swap3\n      swap2\n      pop\n      pop\n      jump\t// out\n        /* \"#utility.yul\":11173:11468   */\n    tag_112:\n        /* \"#utility.yul\":11249:11253   */\n      0x00\n        /* \"#utility.yul\":11395:11424   */\n      tag_238\n        /* \"#utility.yul\":11420:11423   */\n      dup4\n        /* \"#utility.yul\":11414:11418   */\n      dup4\n        /* \"#utility.yul\":11395:11424   */\n      tag_111\n      jump\t// in\n    tag_238:\n        /* \"#utility.yul\":11387:11424   */\n      swap2\n      pop\n        /* \"#utility.yul\":11457:11460   */\n      dup3\n        /* \"#utility.yul\":11454:11455   */\n      0x02\n        /* \"#utility.yul\":11450:11461   */\n      mul\n        /* \"#utility.yul\":11444:11448   */\n      dup3\n        /* \"#utility.yul\":11441:11462   */\n      or\n        /* \"#utility.yul\":11433:11462   */\n      swap1\n      pop\n        /* \"#utility.yul\":11173:11468   */\n      swap3\n      swap2\n      pop\n      pop\n      jump\t// out\n        /* \"#utility.yul\":11473:12868   */\n    tag_35:\n        /* \"#utility.yul\":11590:11627   */\n      tag_240\n        /* \"#utility.yul\":11623:11626   */\n      dup3\n        /* \"#utility.yul\":11590:11627   */\n      tag_84\n      jump\t// in\n    tag_240:\n        /* \"#utility.yul\":11692:11710   */\n      0xffffffffffffffff\n        /* \"#utility.yul\":11684:11690   */\n      dup2\n        /* \"#utility.yul\":11681:11711   */\n      gt\n        /* \"#utility.yul\":11678:11734   */\n      iszero\n      tag_241\n      jumpi\n        /* \"#utility.yul\":11714:11732   */\n      tag_242\n      tag_74\n      jump\t// in\n    tag_242:\n        /* \"#utility.yul\":11678:11734   */\n    tag_241:\n        /* \"#utility.yul\":11758:11796   */\n      tag_243\n        /* \"#utility.yul\":11790:11794   */\n      dup3\n        /* \"#utility.yul\":11784:11795   */\n      sload\n        /* \"#utility.yul\":11758:11796   */\n      tag_45\n      jump\t// in\n    tag_243:\n        /* \"#utility.yul\":11843:11910   */\n      tag_244\n        /* \"#utility.yul\":11903:11909   */\n      dup3\n        /* \"#utility.yul\":11895:11901   */\n      dup3\n        /* \"#utility.yul\":11889:11893   */\n      dup6\n        /* \"#utility.yul\":11843:11910   */\n      tag_109\n      jump\t// in\n    tag_244:\n        /* \"#utility.yul\":11937:11938   */\n      0x00\n        /* \"#utility.yul\":11961:11965   */\n      0x20\n        /* \"#utility.yul\":11948:11965   */\n      swap1\n      pop\n        /* \"#utility.yul\":11993:11995   */\n      0x1f\n        /* \"#utility.yul\":11985:11991   */\n      dup4\n        /* \"#utility.yul\":11982:11996   */\n      gt\n        /* \"#utility.yul\":12010:12011   */\n      0x01\n        /* \"#utility.yul\":12005:12623   */\n      dup2\n      eq\n      tag_246\n      jumpi\n        /* \"#utility.yul\":12667:12668   */\n      0x00\n        /* \"#utility.yul\":12684:12690   */\n      dup5\n        /* \"#utility.yul\":12681:12758   */\n      iszero\n      tag_247\n      jumpi\n        /* \"#utility.yul\":12733:12742   */\n      dup3\n        /* \"#utility.yul\":12728:12731   */\n      dup8\n        /* \"#utility.yul\":12724:12743   */\n      add\n        /* \"#utility.yul\":12718:12744   */\n      mload\n        /* \"#utility.yul\":12709:12744   */\n      swap1\n      pop\n        /* \"#utility.yul\":12681:12758   */\n    tag_247:\n        /* \"#utility.yul\":12784:12851   */\n      tag_248\n        /* \"#utility.yul\":12844:12850   */\n      dup6\n        /* \"#utility.yul\":12837:12842   */\n      dup3\n        /* \"#utility.yul\":12784:12851   */\n      tag_112\n      jump\t// in\n    tag_248:\n        /* \"#utility.yul\":12778:12782   */\n      dup7\n        /* \"#utility.yul\":12771:12852   */\n      sstore\n        /* \"#utility.yul\":12640:12862   */\n      pop\n        /* \"#utility.yul\":11975:12862   */\n      jump(tag_245)\n        /* \"#utility.yul\":12005:12623   */\n    tag_246:\n        /* \"#utility.yul\":12057:12061   */\n      0x1f\n        /* \"#utility.yul\":12053:12062   */\n      not\n        /* \"#utility.yul\":12045:12051   */\n      dup5\n        /* \"#utility.yul\":12041:12063   */\n      and\n        /* \"#utility.yul\":12091:12128   */\n      tag_249\n        /* \"#utility.yul\":12123:12127   */\n      dup7\n        /* \"#utility.yul\":12091:12128   */\n      tag_98\n      jump\t// in\n    tag_249:\n        /* \"#utility.yul\":12150:12151   */\n      0x00\n        /* \"#utility.yul\":12164:12372   */\n    tag_250:\n        /* \"#utility.yul\":12178:12185   */\n      dup3\n        /* \"#utility.yul\":12175:12176   */\n      dup2\n        /* \"#utility.yul\":12172:12186   */\n      lt\n        /* \"#utility.yul\":12164:12372   */\n      iszero\n      tag_252\n      jumpi\n        /* \"#utility.yul\":12257:12266   */\n      dup5\n        /* \"#utility.yul\":12252:12255   */\n      dup10\n        /* \"#utility.yul\":12248:12267   */\n      add\n        /* \"#utility.yul\":12242:12268   */\n      mload\n        /* \"#utility.yul\":12234:12240   */\n      dup3\n        /* \"#utility.yul\":12227:12269   */\n      sstore\n        /* \"#utility.yul\":12308:12309   */\n      0x01\n        /* \"#utility.yul\":12300:12306   */\n      dup3\n        /* \"#utility.yul\":12296:12310   */\n      add\n        /* \"#utility.yul\":12286:12310   */\n      swap2\n      pop\n        /* \"#utility.yul\":12355:12357   */\n      0x20\n        /* \"#utility.yul\":12344:12353   */\n      dup6\n        /* \"#utility.yul\":12340:12358   */\n      add\n        /* \"#utility.yul\":12327:12358   */\n      swap5\n      pop\n        /* \"#utility.yul\":12201:12205   */\n      0x20\n        /* \"#utility.yul\":12198:12199   */\n      dup2\n        /* \"#utility.yul\":12194:12206   */\n      add\n        /* \"#utility.yul\":12189:12206   */\n      swap1\n      pop\n        /* \"#utility.yul\":12164:12372   */\n      jump(tag_250)\n    tag_252:\n        /* \"#utility.yul\":12400:12406   */\n      dup7\n        /* \"#utility.yul\":12391:12398   */\n      dup4\n        /* \"#utility.yul\":12388:12407   */\n      lt\n        /* \"#utility.yul\":12385:12564   */\n      iszero\n      tag_253\n      jumpi\n        /* \"#utility.yul\":12458:12467   */\n      dup5\n        /* \"#utility.yul\":12453:12456   */\n      dup10\n        /* \"#utility.yul\":12449:12468   */\n      add\n        /* \"#utility.yul\":12443:12469   */\n      mload\n        /* \"#utility.yul\":12501:12549   */\n      tag_254\n        /* \"#utility.yul\":12543:12547   */\n      0x1f\n        /* \"#utility.yul\":12535:12541   */\n      dup10\n        /* \"#utility.yul\":12531:12548   */\n      and\n        /* \"#utility.yul\":12520:12529   */\n      dup3\n        /* \"#utility.yul\":12501:12549   */\n      tag_111\n      jump\t// in\n    tag_254:\n        /* \"#utility.yul\":12493:12499   */\n      dup4\n        /* \"#utility.yul\":12486:12550   */\n      sstore\n        /* \"#utility.yul\":12408:12564   */\n      pop\n        /* \"#utility.yul\":12385:12564   */\n    tag_253:\n        /* \"#utility.yul\":12610:12611   */\n      0x01\n        /* \"#utility.yul\":12606:12607   */\n      0x02\n        /* \"#utility.yul\":12598:12604   */\n      dup9\n        /* \"#utility.yul\":12594:12608   */\n      mul\n        /* \"#utility.yul\":12590:12612   */\n      add\n        /* \"#utility.yul\":12584:12588   */\n      dup9\n        /* \"#utility.yul\":12577:12613   */\n      sstore\n        /* \"#utility.yul\":12012:12623   */\n      pop\n      pop\n      pop\n        /* \"#utility.yul\":11975:12862   */\n    tag_245:\n      pop\n        /* \"#utility.yul\":11565:12868   */\n      pop\n      pop\n      pop\n        /* \"#utility.yul\":11473:12868   */\n      pop\n      pop\n      jump\t// out\n        /* \"#utility.yul\":12874:13054   */\n    tag_113:\n        /* \"#utility.yul\":12922:12999   */\n      0x4e487b7100000000000000000000000000000000000000000000000000000000\n        /* \"#utility.yul\":12919:12920   */\n      0x00\n        /* \"#utility.yul\":12912:13000   */\n      mstore\n        /* \"#utility.yul\":13019:13023   */\n      0x11\n        /* \"#utility.yul\":13016:13017   */\n      0x04\n        /* \"#utility.yul\":13009:13024   */\n      mstore\n        /* \"#utility.yul\":13043:13047   */\n      0x24\n        /* \"#utility.yul\":13040:13041   */\n      0x00\n        /* \"#utility.yul\":13033:13048   */\n      revert\n        /* \"#utility.yul\":13060:13293   */\n    tag_39:\n        /* \"#utility.yul\":13099:13102   */\n      0x00\n        /* \"#utility.yul\":13122:13146   */\n      tag_257\n        /* \"#utility.yul\":13140:13145   */\n      dup3\n        /* \"#utility.yul\":13122:13146   */\n      tag_91\n      jump\t// in\n    tag_257:\n        /* \"#utility.yul\":13113:13146   */\n      swap2\n      pop\n        /* \"#utility.yul\":13168:13234   */\n      0xffffffffffffffffffffffffffffffffffffffffffffffffffffffffffffffff\n        /* \"#utility.yul\":13161:13166   */\n      dup3\n        /* \"#utility.yul\":13158:13235   */\n      sub\n        /* \"#utility.yul\":13155:13258   */\n      tag_258\n      jumpi\n        /* \"#utility.yul\":13238:13256   */\n      tag_259\n      tag_113\n      jump\t// in\n    tag_259:\n        /* \"#utility.yul\":13155:13258   */\n    tag_258:\n        /* \"#utility.yul\":13285:13286   */\n      0x01\n        /* \"#utility.yul\":13278:13283   */\n      dup3\n        /* \"#utility.yul\":13274:13287   */\n      add\n        /* \"#utility.yul\":13267:13287   */\n      swap1\n      pop\n        /* \"#utility.yul\":13060:13293   */\n      swap2\n      swap1\n      pop\n      jump\t// out\n\n    auxdata: 0xa2646970667358221220017f51fbc127c835b4983d077a1e2d36eb7f6de41bdfa627262c8d9949fb80dd64736f6c634300081a0033\n}\n",
				"bytecode": {
					"linkReferences": {},
					"object": "608060405234801561000f575f80fd5b506040518060400160405280600d81526020017f48656c6c6f2c20576f726c6421000000000000000000000000000000000000008152505f908161005391906102cc565b5060015f908060018154018082558091505060019003905f5260205f20015f90919091909150908161008591906103c2565b505f6002819055506104a7565b5f81519050919050565b7f4e487b71000000000000000000000000000000000000000000000000000000005f52604160045260245ffd5b7f4e487b71000000000000000000000000000000000000000000000000000000005f52602260045260245ffd5b5f600282049050600182168061010d57607f821691505b6020821081036101205761011f6100c9565b5b50919050565b5f819050815f5260205f209050919050565b5f6020601f8301049050919050565b5f82821b905092915050565b5f600883026101827fffffffffffffffffffffffffffffffffffffffffffffffffffffffffffffffff82610147565b61018c8683610147565b95508019841693508086168417925050509392505050565b5f819050919050565b5f819050919050565b5f6101d06101cb6101c6846101a4565b6101ad565b6101a4565b9050919050565b5f819050919050565b6101e9836101b6565b6101fd6101f5826101d7565b848454610153565b825550505050565b5f90565b610211610205565b61021c8184846101e0565b505050565b5b8181101561023f576102345f82610209565b600181019050610222565b5050565b601f8211156102845761025581610126565b61025e84610138565b8101602085101561026d578190505b61028161027985610138565b830182610221565b50505b505050565b5f82821c905092915050565b5f6102a45f1984600802610289565b1980831691505092915050565b5f6102bc8383610295565b9150826002028217905092915050565b6102d582610092565b67ffffffffffffffff8111156102ee576102ed61009c565b5b6102f882546100f6565b610303828285610243565b5f60209050601f831160018114610334575f8415610322578287015190505b61032c85826102b1565b865550610393565b601f19841661034286610126565b5f5b8281101561036957848901518255600182019150602085019450602081019050610344565b868310156103865784890151610382601f891682610295565b8355505b6001600288020188555050505b505050505050565b5f815490506103a9816100f6565b9050919050565b5f819050815f5260205f209050919050565b8181036103d05750506104a5565b6103d98261039b565b67ffffffffffffffff8111156103f2576103f161009c565b5b6103fc82546100f6565b610407828285610243565b5f601f831160018114610434575f8415610422578287015490505b61042c85826102b1565b86555061049e565b601f198416610442876103b0565b965061044d86610126565b5f5b828110156104745784890154825560018201915060018501945060208101905061044f565b86831015610491578489015461048d601f891682610295565b8355505b6001600288020188555050505b5050505050505b565b610b4d806104b45f395ff3fe608060405234801561000f575f80fd5b5060043610610060575f3560e01c8063368b87721461006457806375abf68514610080578063b1020df91461009e578063ce6d41de146100ce578063d49e68b2146100ec578063e21f37ce1461010a575b5f80fd5b61007e6004803603810190610079919061056a565b610128565b005b610088610183565b60405161009591906106cc565b60405180910390f35b6100b860048036038101906100b3919061071f565b610257565b6040516100c59190610792565b60405180910390f35b6100d66102fd565b6040516100e39190610792565b60405180910390f35b6100f461038c565b60405161010191906107c1565b60405180910390f35b610112610392565b60405161011f9190610792565b60405180910390f35b805f908161013691906109d4565b50600181908060018154018082558091505060019003905f5260205f20015f90919091909150908161016891906109d4565b5060025f81548092919061017b90610ad0565b919050555050565b60606001805480602002602001604051908101604052809291908181526020015f905b8282101561024e578382905f5260205f200180546101c390610807565b80601f01602080910402602001604051908101604052809291908181526020018280546101ef90610807565b801561023a5780601f106102115761010080835404028352916020019161023a565b820191905f5260205f20905b81548152906001019060200180831161021d57829003601f168201915b5050505050815260200190600101906101a6565b50505050905090565b60018181548110610266575f80fd5b905f5260205f20015f91509050805461027e90610807565b80601f01602080910402602001604051908101604052809291908181526020018280546102aa90610807565b80156102f55780601f106102cc576101008083540402835291602001916102f5565b820191905f5260205f20905b8154815290600101906020018083116102d857829003601f168201915b505050505081565b60605f805461030b90610807565b80601f016020809104026020016040519081016040528092919081815260200182805461033790610807565b80156103825780601f1061035957610100808354040283529160200191610382565b820191905f5260205f20905b81548152906001019060200180831161036557829003601f168201915b5050505050905090565b60025481565b5f805461039e90610807565b80601f01602080910402602001604051908101604052809291908181526020018280546103ca90610807565b80156104155780601f106103ec57610100808354040283529160200191610415565b820191905f5260205f20905b8154815290600101906020018083116103f857829003601f168201915b505050505081565b5f604051905090565b5f80fd5b5f80fd5b5f80fd5b5f80fd5b5f601f19601f8301169050919050565b7f4e487b71000000000000000000000000000000000000000000000000000000005f52604160045260245ffd5b61047c82610436565b810181811067ffffffffffffffff8211171561049b5761049a610446565b5b80604052505050565b5f6104ad61041d565b90506104b98282610473565b919050565b5f67ffffffffffffffff8211156104d8576104d7610446565b5b6104e182610436565b9050602081019050919050565b828183375f83830152505050565b5f61050e610509846104be565b6104a4565b90508281526020810184848401111561052a57610529610432565b5b6105358482856104ee565b509392505050565b5f82601f8301126105515761055061042e565b5b81356105618482602086016104fc565b91505092915050565b5f6020828403121561057f5761057e610426565b5b5f82013567ffffffffffffffff81111561059c5761059b61042a565b5b6105a88482850161053d565b91505092915050565b5f81519050919050565b5f82825260208201905092915050565b5f819050602082019050919050565b5f81519050919050565b5f82825260208201905092915050565b8281835e5f83830152505050565b5f61060c826105da565b61061681856105e4565b93506106268185602086016105f4565b61062f81610436565b840191505092915050565b5f6106458383610602565b905092915050565b5f602082019050919050565b5f610663826105b1565b61066d81856105bb565b93508360208202850161067f856105cb565b805f5b858110156106ba578484038952815161069b858261063a565b94506106a68361064d565b925060208a01995050600181019050610682565b50829750879550505050505092915050565b5f6020820190508181035f8301526106e48184610659565b905092915050565b5f819050919050565b6106fe816106ec565b8114610708575f80fd5b50565b5f81359050610719816106f5565b92915050565b5f6020828403121561073457610733610426565b5b5f6107418482850161070b565b91505092915050565b5f82825260208201905092915050565b5f610764826105da565b61076e818561074a565b935061077e8185602086016105f4565b61078781610436565b840191505092915050565b5f6020820190508181035f8301526107aa818461075a565b905092915050565b6107bb816106ec565b82525050565b5f6020820190506107d45f8301846107b2565b92915050565b7f4e487b71000000000000000000000000000000000000000000000000000000005f52602260045260245ffd5b5f600282049050600182168061081e57607f821691505b602082108103610831576108306107da565b5b50919050565b5f819050815f5260205f209050919050565b5f6020601f8301049050919050565b5f82821b905092915050565b5f600883026108937fffffffffffffffffffffffffffffffffffffffffffffffffffffffffffffffff82610858565b61089d8683610858565b95508019841693508086168417925050509392505050565b5f819050919050565b5f6108d86108d36108ce846106ec565b6108b5565b6106ec565b9050919050565b5f819050919050565b6108f1836108be565b6109056108fd826108df565b848454610864565b825550505050565b5f90565b61091961090d565b6109248184846108e8565b505050565b5b818110156109475761093c5f82610911565b60018101905061092a565b5050565b601f82111561098c5761095d81610837565b61096684610849565b81016020851015610975578190505b61098961098185610849565b830182610929565b50505b505050565b5f82821c905092915050565b5f6109ac5f1984600802610991565b1980831691505092915050565b5f6109c4838361099d565b9150826002028217905092915050565b6109dd826105da565b67ffffffffffffffff8111156109f6576109f5610446565b5b610a008254610807565b610a0b82828561094b565b5f60209050601f831160018114610a3c575f8415610a2a578287015190505b610a3485826109b9565b865550610a9b565b601f198416610a4a86610837565b5f5b82811015610a7157848901518255600182019150602085019450602081019050610a4c565b86831015610a8e5784890151610a8a601f89168261099d565b8355505b6001600288020188555050505b505050505050565b7f4e487b71000000000000000000000000000000000000000000000000000000005f52601160045260245ffd5b5f610ada826106ec565b91507fffffffffffffffffffffffffffffffffffffffffffffffffffffffffffffffff8203610b0c57610b0b610aa3565b5b60018201905091905056fea2646970667358221220017f51fbc127c835b4983d077a1e2d36eb7f6de41bdfa627262c8d9949fb80dd64736f6c634300081a0033",
					"opcodes": "PUSH1 0x80 PUSH1 0x40 MSTORE CALLVALUE DUP1 ISZERO PUSH2 0xF JUMPI PUSH0 DUP1 REVERT JUMPDEST POP PUSH1 0x40 MLOAD DUP1 PUSH1 0x40 ADD PUSH1 0x40 MSTORE DUP1 PUSH1 0xD DUP2 MSTORE PUSH1 0x20 ADD PUSH32 0x48656C6C6F2C20576F726C642100000000000000000000000000000000000000 DUP2 MSTORE POP PUSH0 SWAP1 DUP2 PUSH2 0x53 SWAP2 SWAP1 PUSH2 0x2CC JUMP JUMPDEST POP PUSH1 0x1 PUSH0 SWAP1 DUP1 PUSH1 0x1 DUP2 SLOAD ADD DUP1 DUP3 SSTORE DUP1 SWAP2 POP POP PUSH1 0x1 SWAP1 SUB SWAP1 PUSH0 MSTORE PUSH1 0x20 PUSH0 KECCAK256 ADD PUSH0 SWAP1 SWAP2 SWAP1 SWAP2 SWAP1 SWAP2 POP SWAP1 DUP2 PUSH2 0x85 SWAP2 SWAP1 PUSH2 0x3C2 JUMP JUMPDEST POP PUSH0 PUSH1 0x2 DUP2 SWAP1 SSTORE POP PUSH2 0x4A7 JUMP JUMPDEST PUSH0 DUP2 MLOAD SWAP1 POP SWAP2 SWAP1 POP JUMP JUMPDEST PUSH32 0x4E487B7100000000000000000000000000000000000000000000000000000000 PUSH0 MSTORE PUSH1 0x41 PUSH1 0x4 MSTORE PUSH1 0x24 PUSH0 REVERT JUMPDEST PUSH32 0x4E487B7100000000000000000000000000000000000000000000000000000000 PUSH0 MSTORE PUSH1 0x22 PUSH1 0x4 MSTORE PUSH1 0x24 PUSH0 REVERT JUMPDEST PUSH0 PUSH1 0x2 DUP3 DIV SWAP1 POP PUSH1 0x1 DUP3 AND DUP1 PUSH2 0x10D JUMPI PUSH1 0x7F DUP3 AND SWAP2 POP JUMPDEST PUSH1 0x20 DUP3 LT DUP2 SUB PUSH2 0x120 JUMPI PUSH2 0x11F PUSH2 0xC9 JUMP JUMPDEST JUMPDEST POP SWAP2 SWAP1 POP JUMP JUMPDEST PUSH0 DUP2 SWAP1 POP DUP2 PUSH0 MSTORE PUSH1 0x20 PUSH0 KECCAK256 SWAP1 POP SWAP2 SWAP1 POP JUMP JUMPDEST PUSH0 PUSH1 0x20 PUSH1 0x1F DUP4 ADD DIV SWAP1 POP SWAP2 SWAP1 POP JUMP JUMPDEST PUSH0 DUP3 DUP3 SHL SWAP1 POP SWAP3 SWAP2 POP POP JUMP JUMPDEST PUSH0 PUSH1 0x8 DUP4 MUL PUSH2 0x182 PUSH32 0xFFFFFFFFFFFFFFFFFFFFFFFFFFFFFFFFFFFFFFFFFFFFFFFFFFFFFFFFFFFFFFFF DUP3 PUSH2 0x147 JUMP JUMPDEST PUSH2 0x18C DUP7 DUP4 PUSH2 0x147 JUMP JUMPDEST SWAP6 POP DUP1 NOT DUP5 AND SWAP4 POP DUP1 DUP7 AND DUP5 OR SWAP3 POP POP POP SWAP4 SWAP3 POP POP POP JUMP JUMPDEST PUSH0 DUP2 SWAP1 POP SWAP2 SWAP1 POP JUMP JUMPDEST PUSH0 DUP2 SWAP1 POP SWAP2 SWAP1 POP JUMP JUMPDEST PUSH0 PUSH2 0x1D0 PUSH2 0x1CB PUSH2 0x1C6 DUP5 PUSH2 0x1A4 JUMP JUMPDEST PUSH2 0x1AD JUMP JUMPDEST PUSH2 0x1A4 JUMP JUMPDEST SWAP1 POP SWAP2 SWAP1 POP JUMP JUMPDEST PUSH0 DUP2 SWAP1 POP SWAP2 SWAP1 POP JUMP JUMPDEST PUSH2 0x1E9 DUP4 PUSH2 0x1B6 JUMP JUMPDEST PUSH2 0x1FD PUSH2 0x1F5 DUP3 PUSH2 0x1D7 JUMP JUMPDEST DUP5 DUP5 SLOAD PUSH2 0x153 JUMP JUMPDEST DUP3 SSTORE POP POP POP POP JUMP JUMPDEST PUSH0 SWAP1 JUMP JUMPDEST PUSH2 0x211 PUSH2 0x205 JUMP JUMPDEST PUSH2 0x21C DUP2 DUP5 DUP5 PUSH2 0x1E0 JUMP JUMPDEST POP POP POP JUMP JUMPDEST JUMPDEST DUP2 DUP2 LT ISZERO PUSH2 0x23F JUMPI PUSH2 0x234 PUSH0 DUP3 PUSH2 0x209 JUMP JUMPDEST PUSH1 0x1 DUP2 ADD SWAP1 POP PUSH2 0x222 JUMP JUMPDEST POP POP JUMP JUMPDEST PUSH1 0x1F DUP3 GT ISZERO PUSH2 0x284 JUMPI PUSH2 0x255 DUP2 PUSH2 0x126 JUMP JUMPDEST PUSH2 0x25E DUP5 PUSH2 0x138 JUMP JUMPDEST DUP2 ADD PUSH1 0x20 DUP6 LT ISZERO PUSH2 0x26D JUMPI DUP2 SWAP1 POP JUMPDEST PUSH2 0x281 PUSH2 0x279 DUP6 PUSH2 0x138 JUMP JUMPDEST DUP4 ADD DUP3 PUSH2 0x221 JUMP JUMPDEST POP POP JUMPDEST POP POP POP JUMP JUMPDEST PUSH0 DUP3 DUP3 SHR SWAP1 POP SWAP3 SWAP2 POP POP JUMP JUMPDEST PUSH0 PUSH2 0x2A4 PUSH0 NOT DUP5 PUSH1 0x8 MUL PUSH2 0x289 JUMP JUMPDEST NOT DUP1 DUP4 AND SWAP2 POP POP SWAP3 SWAP2 POP POP JUMP JUMPDEST PUSH0 PUSH2 0x2BC DUP4 DUP4 PUSH2 0x295 JUMP JUMPDEST SWAP2 POP DUP3 PUSH1 0x2 MUL DUP3 OR SWAP1 POP SWAP3 SWAP2 POP POP JUMP JUMPDEST PUSH2 0x2D5 DUP3 PUSH2 0x92 JUMP JUMPDEST PUSH8 0xFFFFFFFFFFFFFFFF DUP2 GT ISZERO PUSH2 0x2EE JUMPI PUSH2 0x2ED PUSH2 0x9C JUMP JUMPDEST JUMPDEST PUSH2 0x2F8 DUP3 SLOAD PUSH2 0xF6 JUMP JUMPDEST PUSH2 0x303 DUP3 DUP3 DUP6 PUSH2 0x243 JUMP JUMPDEST PUSH0 PUSH1 0x20 SWAP1 POP PUSH1 0x1F DUP4 GT PUSH1 0x1 DUP2 EQ PUSH2 0x334 JUMPI PUSH0 DUP5 ISZERO PUSH2 0x322 JUMPI DUP3 DUP8 ADD MLOAD SWAP1 POP JUMPDEST PUSH2 0x32C DUP6 DUP3 PUSH2 0x2B1 JUMP JUMPDEST DUP7 SSTORE POP PUSH2 0x393 JUMP JUMPDEST PUSH1 0x1F NOT DUP5 AND PUSH2 0x342 DUP7 PUSH2 0x126 JUMP JUMPDEST PUSH0 JUMPDEST DUP3 DUP2 LT ISZERO PUSH2 0x369 JUMPI DUP5 DUP10 ADD MLOAD DUP3 SSTORE PUSH1 0x1 DUP3 ADD SWAP2 POP PUSH1 0x20 DUP6 ADD SWAP5 POP PUSH1 0x20 DUP2 ADD SWAP1 POP PUSH2 0x344 JUMP JUMPDEST DUP7 DUP4 LT ISZERO PUSH2 0x386 JUMPI DUP5 DUP10 ADD MLOAD PUSH2 0x382 PUSH1 0x1F DUP10 AND DUP3 PUSH2 0x295 JUMP JUMPDEST DUP4 SSTORE POP JUMPDEST PUSH1 0x1 PUSH1 0x2 DUP9 MUL ADD DUP9 SSTORE POP POP POP JUMPDEST POP POP POP POP POP POP JUMP JUMPDEST PUSH0 DUP2 SLOAD SWAP1 POP PUSH2 0x3A9 DUP2 PUSH2 0xF6 JUMP JUMPDEST SWAP1 POP SWAP2 SWAP1 POP JUMP JUMPDEST PUSH0 DUP2 SWAP1 POP DUP2 PUSH0 MSTORE PUSH1 0x20 PUSH0 KECCAK256 SWAP1 POP SWAP2 SWAP1 POP JUMP JUMPDEST DUP2 DUP2 SUB PUSH2 0x3D0 JUMPI POP POP PUSH2 0x4A5 JUMP JUMPDEST PUSH2 0x3D9 DUP3 PUSH2 0x39B JUMP JUMPDEST PUSH8 0xFFFFFFFFFFFFFFFF DUP2 GT ISZERO PUSH2 0x3F2 JUMPI PUSH2 0x3F1 PUSH2 0x9C JUMP JUMPDEST JUMPDEST PUSH2 0x3FC DUP3 SLOAD PUSH2 0xF6 JUMP JUMPDEST PUSH2 0x407 DUP3 DUP3 DUP6 PUSH2 0x243 JUMP JUMPDEST PUSH0 PUSH1 0x1F DUP4 GT PUSH1 0x1 DUP2 EQ PUSH2 0x434 JUMPI PUSH0 DUP5 ISZERO PUSH2 0x422 JUMPI DUP3 DUP8 ADD SLOAD SWAP1 POP JUMPDEST PUSH2 0x42C DUP6 DUP3 PUSH2 0x2B1 JUMP JUMPDEST DUP7 SSTORE POP PUSH2 0x49E JUMP JUMPDEST PUSH1 0x1F NOT DUP5 AND PUSH2 0x442 DUP8 PUSH2 0x3B0 JUMP JUMPDEST SWAP7 POP PUSH2 0x44D DUP7 PUSH2 0x126 JUMP JUMPDEST PUSH0 JUMPDEST DUP3 DUP2 LT ISZERO PUSH2 0x474 JUMPI DUP5 DUP10 ADD SLOAD DUP3 SSTORE PUSH1 0x1 DUP3 ADD SWAP2 POP PUSH1 0x1 DUP6 ADD SWAP5 POP PUSH1 0x20 DUP2 ADD SWAP1 POP PUSH2 0x44F JUMP JUMPDEST DUP7 DUP4 LT ISZERO PUSH2 0x491 JUMPI DUP5 DUP10 ADD SLOAD PUSH2 0x48D PUSH1 0x1F DUP10 AND DUP3 PUSH2 0x295 JUMP JUMPDEST DUP4 SSTORE POP JUMPDEST PUSH1 0x1 PUSH1 0x2 DUP9 MUL ADD DUP9 SSTORE POP POP POP JUMPDEST POP POP POP POP POP POP JUMPDEST JUMP JUMPDEST PUSH2 0xB4D DUP1 PUSH2 0x4B4 PUSH0 CODECOPY PUSH0 RETURN INVALID PUSH1 0x80 PUSH1 0x40 MSTORE CALLVALUE DUP1 ISZERO PUSH2 0xF JUMPI PUSH0 DUP1 REVERT JUMPDEST POP PUSH1 0x4 CALLDATASIZE LT PUSH2 0x60 JUMPI PUSH0 CALLDATALOAD PUSH1 0xE0 SHR DUP1 PUSH4 0x368B8772 EQ PUSH2 0x64 JUMPI DUP1 PUSH4 0x75ABF685 EQ PUSH2 0x80 JUMPI DUP1 PUSH4 0xB1020DF9 EQ PUSH2 0x9E JUMPI DUP1 PUSH4 0xCE6D41DE EQ PUSH2 0xCE JUMPI DUP1 PUSH4 0xD49E68B2 EQ PUSH2 0xEC JUMPI DUP1 PUSH4 0xE21F37CE EQ PUSH2 0x10A JUMPI JUMPDEST PUSH0 DUP1 REVERT JUMPDEST PUSH2 0x7E PUSH1 0x4 DUP1 CALLDATASIZE SUB DUP2 ADD SWAP1 PUSH2 0x79 SWAP2 SWAP1 PUSH2 0x56A JUMP JUMPDEST PUSH2 0x128 JUMP JUMPDEST STOP JUMPDEST PUSH2 0x88 PUSH2 0x183 JUMP JUMPDEST PUSH1 0x40 MLOAD PUSH2 0x95 SWAP2 SWAP1 PUSH2 0x6CC JUMP JUMPDEST PUSH1 0x40 MLOAD DUP1 SWAP2 SUB SWAP1 RETURN JUMPDEST PUSH2 0xB8 PUSH1 0x4 DUP1 CALLDATASIZE SUB DUP2 ADD SWAP1 PUSH2 0xB3 SWAP2 SWAP1 PUSH2 0x71F JUMP JUMPDEST PUSH2 0x257 JUMP JUMPDEST PUSH1 0x40 MLOAD PUSH2 0xC5 SWAP2 SWAP1 PUSH2 0x792 JUMP JUMPDEST PUSH1 0x40 MLOAD DUP1 SWAP2 SUB SWAP1 RETURN JUMPDEST PUSH2 0xD6 PUSH2 0x2FD JUMP JUMPDEST PUSH1 0x40 MLOAD PUSH2 0xE3 SWAP2 SWAP1 PUSH2 0x792 JUMP JUMPDEST PUSH1 0x40 MLOAD DUP1 SWAP2 SUB SWAP1 RETURN JUMPDEST PUSH2 0xF4 PUSH2 0x38C JUMP JUMPDEST PUSH1 0x40 MLOAD PUSH2 0x101 SWAP2 SWAP1 PUSH2 0x7C1 JUMP JUMPDEST PUSH1 0x40 MLOAD DUP1 SWAP2 SUB SWAP1 RETURN JUMPDEST PUSH2 0x112 PUSH2 0x392 JUMP JUMPDEST PUSH1 0x40 MLOAD PUSH2 0x11F SWAP2 SWAP1 PUSH2 0x792 JUMP JUMPDEST PUSH1 0x40 MLOAD DUP1 SWAP2 SUB SWAP1 RETURN JUMPDEST DUP1 PUSH0 SWAP1 DUP2 PUSH2 0x136 SWAP2 SWAP1 PUSH2 0x9D4 JUMP JUMPDEST POP PUSH1 0x1 DUP2 SWAP1 DUP1 PUSH1 0x1 DUP2 SLOAD ADD DUP1 DUP3 SSTORE DUP1 SWAP2 POP POP PUSH1 0x1 SWAP1 SUB SWAP1 PUSH0 MSTORE PUSH1 0x20 PUSH0 KECCAK256 ADD PUSH0 SWAP1 SWAP2 SWAP1 SWAP2 SWAP1 SWAP2 POP SWAP1 DUP2 PUSH2 0x168 SWAP2 SWAP1 PUSH2 0x9D4 JUMP JUMPDEST POP PUSH1 0x2 PUSH0 DUP2 SLOAD DUP1 SWAP3 SWAP2 SWAP1 PUSH2 0x17B SWAP1 PUSH2 0xAD0 JUMP JUMPDEST SWAP2 SWAP1 POP SSTORE POP POP JUMP JUMPDEST PUSH1 0x60 PUSH1 0x1 DUP1 SLOAD DUP1 PUSH1 0x20 MUL PUSH1 0x20 ADD PUSH1 0x40 MLOAD SWAP1 DUP2 ADD PUSH1 0x40 MSTORE DUP1 SWAP3 SWAP2 SWAP1 DUP2 DUP2 MSTORE PUSH1 0x20 ADD PUSH0 SWAP1 JUMPDEST DUP3 DUP3 LT ISZERO PUSH2 0x24E JUMPI DUP4 DUP3 SWAP1 PUSH0 MSTORE PUSH1 0x20 PUSH0 KECCAK256 ADD DUP1 SLOAD PUSH2 0x1C3 SWAP1 PUSH2 0x807 JUMP JUMPDEST DUP1 PUSH1 0x1F ADD PUSH1 0x20 DUP1 SWAP2 DIV MUL PUSH1 0x20 ADD PUSH1 0x40 MLOAD SWAP1 DUP2 ADD PUSH1 0x40 MSTORE DUP1 SWAP3 SWAP2 SWAP1 DUP2 DUP2 MSTORE PUSH1 0x20 ADD DUP3 DUP1 SLOAD PUSH2 0x1EF SWAP1 PUSH2 0x807 JUMP JUMPDEST DUP1 ISZERO PUSH2 0x23A JUMPI DUP1 PUSH1 0x1F LT PUSH2 0x211 JUMPI PUSH2 0x100 DUP1 DUP4 SLOAD DIV MUL DUP4 MSTORE SWAP2 PUSH1 0x20 ADD SWAP2 PUSH2 0x23A JUMP JUMPDEST DUP3 ADD SWAP2 SWAP1 PUSH0 MSTORE PUSH1 0x20 PUSH0 KECCAK256 SWAP1 JUMPDEST DUP2 SLOAD DUP2 MSTORE SWAP1 PUSH1 0x1 ADD SWAP1 PUSH1 0x20 ADD DUP1 DUP4 GT PUSH2 0x21D JUMPI DUP3 SWAP1 SUB PUSH1 0x1F AND DUP3 ADD SWAP2 JUMPDEST POP POP POP POP POP DUP2 MSTORE PUSH1 0x20 ADD SWAP1 PUSH1 0x1 ADD SWAP1 PUSH2 0x1A6 JUMP JUMPDEST POP POP POP POP SWAP1 POP SWAP1 JUMP JUMPDEST PUSH1 0x1 DUP2 DUP2 SLOAD DUP2 LT PUSH2 0x266 JUMPI PUSH0 DUP1 REVERT JUMPDEST SWAP1 PUSH0 MSTORE PUSH1 0x20 PUSH0 KECCAK256 ADD PUSH0 SWAP2 POP SWAP1 POP DUP1 SLOAD PUSH2 0x27E SWAP1 PUSH2 0x807 JUMP JUMPDEST DUP1 PUSH1 0x1F ADD PUSH1 0x20 DUP1 SWAP2 DIV MUL PUSH1 0x20 ADD PUSH1 0x40 MLOAD SWAP1 DUP2 ADD PUSH1 0x40 MSTORE DUP1 SWAP3 SWAP2 SWAP1 DUP2 DUP2 MSTORE PUSH1 0x20 ADD DUP3 DUP1 SLOAD PUSH2 0x2AA SWAP1 PUSH2 0x807 JUMP JUMPDEST DUP1 ISZERO PUSH2 0x2F5 JUMPI DUP1 PUSH1 0x1F LT PUSH2 0x2CC JUMPI PUSH2 0x100 DUP1 DUP4 SLOAD DIV MUL DUP4 MSTORE SWAP2 PUSH1 0x20 ADD SWAP2 PUSH2 0x2F5 JUMP JUMPDEST DUP3 ADD SWAP2 SWAP1 PUSH0 MSTORE PUSH1 0x20 PUSH0 KECCAK256 SWAP1 JUMPDEST DUP2 SLOAD DUP2 MSTORE SWAP1 PUSH1 0x1 ADD SWAP1 PUSH1 0x20 ADD DUP1 DUP4 GT PUSH2 0x2D8 JUMPI DUP3 SWAP1 SUB PUSH1 0x1F AND DUP3 ADD SWAP2 JUMPDEST POP POP POP POP POP DUP2 JUMP JUMPDEST PUSH1 0x60 PUSH0 DUP1 SLOAD PUSH2 0x30B SWAP1 PUSH2 0x807 JUMP JUMPDEST DUP1 PUSH1 0x1F ADD PUSH1 0x20 DUP1 SWAP2 DIV MUL PUSH1 0x20 ADD PUSH1 0x40 MLOAD SWAP1 DUP2 ADD PUSH1 0x40 MSTORE DUP1 SWAP3 SWAP2 SWAP1 DUP2 DUP2 MSTORE PUSH1 0x20 ADD DUP3 DUP1 SLOAD PUSH2 0x337 SWAP1 PUSH2 0x807 JUMP JUMPDEST DUP1 ISZERO PUSH2 0x382 JUMPI DUP1 PUSH1 0x1F LT PUSH2 0x359 JUMPI PUSH2 0x100 DUP1 DUP4 SLOAD DIV MUL DUP4 MSTORE SWAP2 PUSH1 0x20 ADD SWAP2 PUSH2 0x382 JUMP JUMPDEST DUP3 ADD SWAP2 SWAP1 PUSH0 MSTORE PUSH1 0x20 PUSH0 KECCAK256 SWAP1 JUMPDEST DUP2 SLOAD DUP2 MSTORE SWAP1 PUSH1 0x1 ADD SWAP1 PUSH1 0x20 ADD DUP1 DUP4 GT PUSH2 0x365 JUMPI DUP3 SWAP1 SUB PUSH1 0x1F AND DUP3 ADD SWAP2 JUMPDEST POP POP POP POP POP SWAP1 POP SWAP1 JUMP JUMPDEST PUSH1 0x2 SLOAD DUP2 JUMP JUMPDEST PUSH0 DUP1 SLOAD PUSH2 0x39E SWAP1 PUSH2 0x807 JUMP JUMPDEST DUP1 PUSH1 0x1F ADD PUSH1 0x20 DUP1 SWAP2 DIV MUL PUSH1 0x20 ADD PUSH1 0x40 MLOAD SWAP1 DUP2 ADD PUSH1 0x40 MSTORE DUP1 SWAP3 SWAP2 SWAP1 DUP2 DUP2 MSTORE PUSH1 0x20 ADD DUP3 DUP1 SLOAD PUSH2 0x3CA SWAP1 PUSH2 0x807 JUMP JUMPDEST DUP1 ISZERO PUSH2 0x415 JUMPI DUP1 PUSH1 0x1F LT PUSH2 0x3EC JUMPI PUSH2 0x100 DUP1 DUP4 SLOAD DIV MUL DUP4 MSTORE SWAP2 PUSH1 0x20 ADD SWAP2 PUSH2 0x415 JUMP JUMPDEST DUP3 ADD SWAP2 SWAP1 PUSH0 MSTORE PUSH1 0x20 PUSH0 KECCAK256 SWAP1 JUMPDEST DUP2 SLOAD DUP2 MSTORE SWAP1 PUSH1 0x1 ADD SWAP1 PUSH1 0x20 ADD DUP1 DUP4 GT PUSH2 0x3F8 JUMPI DUP3 SWAP1 SUB PUSH1 0x1F AND DUP3 ADD SWAP2 JUMPDEST POP POP POP POP POP DUP2 JUMP JUMPDEST PUSH0 PUSH1 0x40 MLOAD SWAP1 POP SWAP1 JUMP JUMPDEST PUSH0 DUP1 REVERT JUMPDEST PUSH0 DUP1 REVERT JUMPDEST PUSH0 DUP1 REVERT JUMPDEST PUSH0 DUP1 REVERT JUMPDEST PUSH0 PUSH1 0x1F NOT PUSH1 0x1F DUP4 ADD AND SWAP1 POP SWAP2 SWAP1 POP JUMP JUMPDEST PUSH32 0x4E487B7100000000000000000000000000000000000000000000000000000000 PUSH0 MSTORE PUSH1 0x41 PUSH1 0x4 MSTORE PUSH1 0x24 PUSH0 REVERT JUMPDEST PUSH2 0x47C DUP3 PUSH2 0x436 JUMP JUMPDEST DUP2 ADD DUP2 DUP2 LT PUSH8 0xFFFFFFFFFFFFFFFF DUP3 GT OR ISZERO PUSH2 0x49B JUMPI PUSH2 0x49A PUSH2 0x446 JUMP JUMPDEST JUMPDEST DUP1 PUSH1 0x40 MSTORE POP POP POP JUMP JUMPDEST PUSH0 PUSH2 0x4AD PUSH2 0x41D JUMP JUMPDEST SWAP1 POP PUSH2 0x4B9 DUP3 DUP3 PUSH2 0x473 JUMP JUMPDEST SWAP2 SWAP1 POP JUMP JUMPDEST PUSH0 PUSH8 0xFFFFFFFFFFFFFFFF DUP3 GT ISZERO PUSH2 0x4D8 JUMPI PUSH2 0x4D7 PUSH2 0x446 JUMP JUMPDEST JUMPDEST PUSH2 0x4E1 DUP3 PUSH2 0x436 JUMP JUMPDEST SWAP1 POP PUSH1 0x20 DUP2 ADD SWAP1 POP SWAP2 SWAP1 POP JUMP JUMPDEST DUP3 DUP2 DUP4 CALLDATACOPY PUSH0 DUP4 DUP4 ADD MSTORE POP POP POP JUMP JUMPDEST PUSH0 PUSH2 0x50E PUSH2 0x509 DUP5 PUSH2 0x4BE JUMP JUMPDEST PUSH2 0x4A4 JUMP JUMPDEST SWAP1 POP DUP3 DUP2 MSTORE PUSH1 0x20 DUP2 ADD DUP5 DUP5 DUP5 ADD GT ISZERO PUSH2 0x52A JUMPI PUSH2 0x529 PUSH2 0x432 JUMP JUMPDEST JUMPDEST PUSH2 0x535 DUP5 DUP3 DUP6 PUSH2 0x4EE JUMP JUMPDEST POP SWAP4 SWAP3 POP POP POP JUMP JUMPDEST PUSH0 DUP3 PUSH1 0x1F DUP4 ADD SLT PUSH2 0x551 JUMPI PUSH2 0x550 PUSH2 0x42E JUMP JUMPDEST JUMPDEST DUP2 CALLDATALOAD PUSH2 0x561 DUP5 DUP3 PUSH1 0x20 DUP7 ADD PUSH2 0x4FC JUMP JUMPDEST SWAP2 POP POP SWAP3 SWAP2 POP POP JUMP JUMPDEST PUSH0 PUSH1 0x20 DUP3 DUP5 SUB SLT ISZERO PUSH2 0x57F JUMPI PUSH2 0x57E PUSH2 0x426 JUMP JUMPDEST JUMPDEST PUSH0 DUP3 ADD CALLDATALOAD PUSH8 0xFFFFFFFFFFFFFFFF DUP2 GT ISZERO PUSH2 0x59C JUMPI PUSH2 0x59B PUSH2 0x42A JUMP JUMPDEST JUMPDEST PUSH2 0x5A8 DUP5 DUP3 DUP6 ADD PUSH2 0x53D JUMP JUMPDEST SWAP2 POP POP SWAP3 SWAP2 POP POP JUMP JUMPDEST PUSH0 DUP2 MLOAD SWAP1 POP SWAP2 SWAP1 POP JUMP JUMPDEST PUSH0 DUP3 DUP3 MSTORE PUSH1 0x20 DUP3 ADD SWAP1 POP SWAP3 SWAP2 POP POP JUMP JUMPDEST PUSH0 DUP2 SWAP1 POP PUSH1 0x20 DUP3 ADD SWAP1 POP SWAP2 SWAP1 POP JUMP JUMPDEST PUSH0 DUP2 MLOAD SWAP1 POP SWAP2 SWAP1 POP JUMP JUMPDEST PUSH0 DUP3 DUP3 MSTORE PUSH1 0x20 DUP3 ADD SWAP1 POP SWAP3 SWAP2 POP POP JUMP JUMPDEST DUP3 DUP2 DUP4 MCOPY PUSH0 DUP4 DUP4 ADD MSTORE POP POP POP JUMP JUMPDEST PUSH0 PUSH2 0x60C DUP3 PUSH2 0x5DA JUMP JUMPDEST PUSH2 0x616 DUP2 DUP6 PUSH2 0x5E4 JUMP JUMPDEST SWAP4 POP PUSH2 0x626 DUP2 DUP6 PUSH1 0x20 DUP7 ADD PUSH2 0x5F4 JUMP JUMPDEST PUSH2 0x62F DUP2 PUSH2 0x436 JUMP JUMPDEST DUP5 ADD SWAP2 POP POP SWAP3 SWAP2 POP POP JUMP JUMPDEST PUSH0 PUSH2 0x645 DUP4 DUP4 PUSH2 0x602 JUMP JUMPDEST SWAP1 POP SWAP3 SWAP2 POP POP JUMP JUMPDEST PUSH0 PUSH1 0x20 DUP3 ADD SWAP1 POP SWAP2 SWAP1 POP JUMP JUMPDEST PUSH0 PUSH2 0x663 DUP3 PUSH2 0x5B1 JUMP JUMPDEST PUSH2 0x66D DUP2 DUP6 PUSH2 0x5BB JUMP JUMPDEST SWAP4 POP DUP4 PUSH1 0x20 DUP3 MUL DUP6 ADD PUSH2 0x67F DUP6 PUSH2 0x5CB JUMP JUMPDEST DUP1 PUSH0 JUMPDEST DUP6 DUP2 LT ISZERO PUSH2 0x6BA JUMPI DUP5 DUP5 SUB DUP10 MSTORE DUP2 MLOAD PUSH2 0x69B DUP6 DUP3 PUSH2 0x63A JUMP JUMPDEST SWAP5 POP PUSH2 0x6A6 DUP4 PUSH2 0x64D JUMP JUMPDEST SWAP3 POP PUSH1 0x20 DUP11 ADD SWAP10 POP POP PUSH1 0x1 DUP2 ADD SWAP1 POP PUSH2 0x682 JUMP JUMPDEST POP DUP3 SWAP8 POP DUP8 SWAP6 POP POP POP POP POP POP SWAP3 SWAP2 POP POP JUMP JUMPDEST PUSH0 PUSH1 0x20 DUP3 ADD SWAP1 POP DUP2 DUP2 SUB PUSH0 DUP4 ADD MSTORE PUSH2 0x6E4 DUP2 DUP5 PUSH2 0x659 JUMP JUMPDEST SWAP1 POP SWAP3 SWAP2 POP POP JUMP JUMPDEST PUSH0 DUP2 SWAP1 POP SWAP2 SWAP1 POP JUMP JUMPDEST PUSH2 0x6FE DUP2 PUSH2 0x6EC JUMP JUMPDEST DUP2 EQ PUSH2 0x708 JUMPI PUSH0 DUP1 REVERT JUMPDEST POP JUMP JUMPDEST PUSH0 DUP2 CALLDATALOAD SWAP1 POP PUSH2 0x719 DUP2 PUSH2 0x6F5 JUMP JUMPDEST SWAP3 SWAP2 POP POP JUMP JUMPDEST PUSH0 PUSH1 0x20 DUP3 DUP5 SUB SLT ISZERO PUSH2 0x734 JUMPI PUSH2 0x733 PUSH2 0x426 JUMP JUMPDEST JUMPDEST PUSH0 PUSH2 0x741 DUP5 DUP3 DUP6 ADD PUSH2 0x70B JUMP JUMPDEST SWAP2 POP POP SWAP3 SWAP2 POP POP JUMP JUMPDEST PUSH0 DUP3 DUP3 MSTORE PUSH1 0x20 DUP3 ADD SWAP1 POP SWAP3 SWAP2 POP POP JUMP JUMPDEST PUSH0 PUSH2 0x764 DUP3 PUSH2 0x5DA JUMP JUMPDEST PUSH2 0x76E DUP2 DUP6 PUSH2 0x74A JUMP JUMPDEST SWAP4 POP PUSH2 0x77E DUP2 DUP6 PUSH1 0x20 DUP7 ADD PUSH2 0x5F4 JUMP JUMPDEST PUSH2 0x787 DUP2 PUSH2 0x436 JUMP JUMPDEST DUP5 ADD SWAP2 POP POP SWAP3 SWAP2 POP POP JUMP JUMPDEST PUSH0 PUSH1 0x20 DUP3 ADD SWAP1 POP DUP2 DUP2 SUB PUSH0 DUP4 ADD MSTORE PUSH2 0x7AA DUP2 DUP5 PUSH2 0x75A JUMP JUMPDEST SWAP1 POP SWAP3 SWAP2 POP POP JUMP JUMPDEST PUSH2 0x7BB DUP2 PUSH2 0x6EC JUMP JUMPDEST DUP3 MSTORE POP POP JUMP JUMPDEST PUSH0 PUSH1 0x20 DUP3 ADD SWAP1 POP PUSH2 0x7D4 PUSH0 DUP4 ADD DUP5 PUSH2 0x7B2 JUMP JUMPDEST SWAP3 SWAP2 POP POP JUMP JUMPDEST PUSH32 0x4E487B7100000000000000000000000000000000000000000000000000000000 PUSH0 MSTORE PUSH1 0x22 PUSH1 0x4 MSTORE PUSH1 0x24 PUSH0 REVERT JUMPDEST PUSH0 PUSH1 0x2 DUP3 DIV SWAP1 POP PUSH1 0x1 DUP3 AND DUP1 PUSH2 0x81E JUMPI PUSH1 0x7F DUP3 AND SWAP2 POP JUMPDEST PUSH1 0x20 DUP3 LT DUP2 SUB PUSH2 0x831 JUMPI PUSH2 0x830 PUSH2 0x7DA JUMP JUMPDEST JUMPDEST POP SWAP2 SWAP1 POP JUMP JUMPDEST PUSH0 DUP2 SWAP1 POP DUP2 PUSH0 MSTORE PUSH1 0x20 PUSH0 KECCAK256 SWAP1 POP SWAP2 SWAP1 POP JUMP JUMPDEST PUSH0 PUSH1 0x20 PUSH1 0x1F DUP4 ADD DIV SWAP1 POP SWAP2 SWAP1 POP JUMP JUMPDEST PUSH0 DUP3 DUP3 SHL SWAP1 POP SWAP3 SWAP2 POP POP JUMP JUMPDEST PUSH0 PUSH1 0x8 DUP4 MUL PUSH2 0x893 PUSH32 0xFFFFFFFFFFFFFFFFFFFFFFFFFFFFFFFFFFFFFFFFFFFFFFFFFFFFFFFFFFFFFFFF DUP3 PUSH2 0x858 JUMP JUMPDEST PUSH2 0x89D DUP7 DUP4 PUSH2 0x858 JUMP JUMPDEST SWAP6 POP DUP1 NOT DUP5 AND SWAP4 POP DUP1 DUP7 AND DUP5 OR SWAP3 POP POP POP SWAP4 SWAP3 POP POP POP JUMP JUMPDEST PUSH0 DUP2 SWAP1 POP SWAP2 SWAP1 POP JUMP JUMPDEST PUSH0 PUSH2 0x8D8 PUSH2 0x8D3 PUSH2 0x8CE DUP5 PUSH2 0x6EC JUMP JUMPDEST PUSH2 0x8B5 JUMP JUMPDEST PUSH2 0x6EC JUMP JUMPDEST SWAP1 POP SWAP2 SWAP1 POP JUMP JUMPDEST PUSH0 DUP2 SWAP1 POP SWAP2 SWAP1 POP JUMP JUMPDEST PUSH2 0x8F1 DUP4 PUSH2 0x8BE JUMP JUMPDEST PUSH2 0x905 PUSH2 0x8FD DUP3 PUSH2 0x8DF JUMP JUMPDEST DUP5 DUP5 SLOAD PUSH2 0x864 JUMP JUMPDEST DUP3 SSTORE POP POP POP POP JUMP JUMPDEST PUSH0 SWAP1 JUMP JUMPDEST PUSH2 0x919 PUSH2 0x90D JUMP JUMPDEST PUSH2 0x924 DUP2 DUP5 DUP5 PUSH2 0x8E8 JUMP JUMPDEST POP POP POP JUMP JUMPDEST JUMPDEST DUP2 DUP2 LT ISZERO PUSH2 0x947 JUMPI PUSH2 0x93C PUSH0 DUP3 PUSH2 0x911 JUMP JUMPDEST PUSH1 0x1 DUP2 ADD SWAP1 POP PUSH2 0x92A JUMP JUMPDEST POP POP JUMP JUMPDEST PUSH1 0x1F DUP3 GT ISZERO PUSH2 0x98C JUMPI PUSH2 0x95D DUP2 PUSH2 0x837 JUMP JUMPDEST PUSH2 0x966 DUP5 PUSH2 0x849 JUMP JUMPDEST DUP2 ADD PUSH1 0x20 DUP6 LT ISZERO PUSH2 0x975 JUMPI DUP2 SWAP1 POP JUMPDEST PUSH2 0x989 PUSH2 0x981 DUP6 PUSH2 0x849 JUMP JUMPDEST DUP4 ADD DUP3 PUSH2 0x929 JUMP JUMPDEST POP POP JUMPDEST POP POP POP JUMP JUMPDEST PUSH0 DUP3 DUP3 SHR SWAP1 POP SWAP3 SWAP2 POP POP JUMP JUMPDEST PUSH0 PUSH2 0x9AC PUSH0 NOT DUP5 PUSH1 0x8 MUL PUSH2 0x991 JUMP JUMPDEST NOT DUP1 DUP4 AND SWAP2 POP POP SWAP3 SWAP2 POP POP JUMP JUMPDEST PUSH0 PUSH2 0x9C4 DUP4 DUP4 PUSH2 0x99D JUMP JUMPDEST SWAP2 POP DUP3 PUSH1 0x2 MUL DUP3 OR SWAP1 POP SWAP3 SWAP2 POP POP JUMP JUMPDEST PUSH2 0x9DD DUP3 PUSH2 0x5DA JUMP JUMPDEST PUSH8 0xFFFFFFFFFFFFFFFF DUP2 GT ISZERO PUSH2 0x9F6 JUMPI PUSH2 0x9F5 PUSH2 0x446 JUMP JUMPDEST JUMPDEST PUSH2 0xA00 DUP3 SLOAD PUSH2 0x807 JUMP JUMPDEST PUSH2 0xA0B DUP3 DUP3 DUP6 PUSH2 0x94B JUMP JUMPDEST PUSH0 PUSH1 0x20 SWAP1 POP PUSH1 0x1F DUP4 GT PUSH1 0x1 DUP2 EQ PUSH2 0xA3C JUMPI PUSH0 DUP5 ISZERO PUSH2 0xA2A JUMPI DUP3 DUP8 ADD MLOAD SWAP1 POP JUMPDEST PUSH2 0xA34 DUP6 DUP3 PUSH2 0x9B9 JUMP JUMPDEST DUP7 SSTORE POP PUSH2 0xA9B JUMP JUMPDEST PUSH1 0x1F NOT DUP5 AND PUSH2 0xA4A DUP7 PUSH2 0x837 JUMP JUMPDEST PUSH0 JUMPDEST DUP3 DUP2 LT ISZERO PUSH2 0xA71 JUMPI DUP5 DUP10 ADD MLOAD DUP3 SSTORE PUSH1 0x1 DUP3 ADD SWAP2 POP PUSH1 0x20 DUP6 ADD SWAP5 POP PUSH1 0x20 DUP2 ADD SWAP1 POP PUSH2 0xA4C JUMP JUMPDEST DUP7 DUP4 LT ISZERO PUSH2 0xA8E JUMPI DUP5 DUP10 ADD MLOAD PUSH2 0xA8A PUSH1 0x1F DUP10 AND DUP3 PUSH2 0x99D JUMP JUMPDEST DUP4 SSTORE POP JUMPDEST PUSH1 0x1 PUSH1 0x2 DUP9 MUL ADD DUP9 SSTORE POP POP POP JUMPDEST POP POP POP POP POP POP JUMP JUMPDEST PUSH32 0x4E487B7100000000000000000000000000000000000000000000000000000000 PUSH0 MSTORE PUSH1 0x11 PUSH1 0x4 MSTORE PUSH1 0x24 PUSH0 REVERT JUMPDEST PUSH0 PUSH2 0xADA DUP3 PUSH2 0x6EC JUMP JUMPDEST SWAP2 POP PUSH32 0xFFFFFFFFFFFFFFFFFFFFFFFFFFFFFFFFFFFFFFFFFFFFFFFFFFFFFFFFFFFFFFFF DUP3 SUB PUSH2 0xB0C JUMPI PUSH2 0xB0B PUSH2 0xAA3 JUMP JUMPDEST JUMPDEST PUSH1 0x1 DUP3 ADD SWAP1 POP SWAP2 SWAP1 POP JUMP INVALID LOG2 PUSH5 0x6970667358 0x22 SLT KECCAK256 ADD PUSH32 0x51FBC127C835B4983D077A1E2D36EB7F6DE41BDFA627262C8D9949FB80DD6473 PUSH16 0x6C634300081A00330000000000000000 "
				},
				"gasEstimates": {
					"creation": {
						"codeDepositCost": "578600",
						"executionCost": "infinite",
						"totalCost": "infinite"
					},
					"external": {
						"getMessage()": "infinite",
						"getMessageHistory()": "infinite",
						"message()": "infinite",
						"messageChangeCount()": "2491",
						"messageHistory(uint256)": "infinite",
						"setMessage(string)": "infinite"
					}
				},
				"methodIdentifiers": {
					"getMessage()": "ce6d41de",
					"getMessageHistory()": "75abf685",
					"message()": "e21f37ce",
					"messageChangeCount()": "d49e68b2",
					"messageHistory(uint256)": "b1020df9",
					"setMessage(string)": "368b8772"
				}
			},
			"storageLayout": {
				"storage": [
					{
						"astId": 3,
						"contract": "contracts/HelloWorld.sol:HelloWorld",
						"label": "message",
						"offset": 0,
						"slot": "0",
						"type": "t_string_storage"
					},
					{
						"astId": 6,
						"contract": "contracts/HelloWorld.sol:HelloWorld",
						"label": "messageHistory",
						"offset": 0,
						"slot": "1",
						"type": "t_array(t_string_storage)dyn_storage"
					},
					{
						"astId": 8,
						"contract": "contracts/HelloWorld.sol:HelloWorld",
						"label": "messageChangeCount",
						"offset": 0,
						"slot": "2",
						"type": "t_uint256"
					}
				],
				"types": {
					"t_array(t_string_storage)dyn_storage": {
						"base": "t_string_storage",
						"encoding": "dynamic_array",
						"label": "string[]",
						"numberOfBytes": "32"
					},
					"t_string_storage": {
						"encoding": "bytes",
						"label": "string",
						"numberOfBytes": "32"
					},
					"t_uint256": {
						"encoding": "inplace",
						"label": "uint256",
						"numberOfBytes": "32"
					}
				}
			},
			"userdoc": {
				"kind": "user",
				"methods": {},
				"version": 1
			}
		}
	}
}